:020000040800F2
:1000000000040020D1020008D3020008D302000837
:10001000D3020008D3020008D3020008D30200086C
:10002000D3020008D3020008D3020008218F000881
:10003000D3020008D3020008D3020008D30200084C
:10004000D3020008D3020008D3020008D30200083C
:10005000D3020008D3020008D3020008D30200082C
:10006000D3020008D3020008D3020008E59D00086F
:10007000F99D00080D9E0008219E0008359E00088D
:10008000499E00085D9E0008D3020008D3020008C4
:10009000D3020008D3020008D3020008D3020008EC
:1000A000D3020008D3020008D3020008D3020008DC
:1000B00041A20008D3020008D3020008D3020008BE
:1000C000D3020008D3020008D3020008D3020008BC
:1000D000D3020008D3020008D3020008D3020008AC
:1000E000D3020008D3020008D3020008D30200089C
:1000F000D3020008D3020008D3020008D30200088C
:10010000D3020008D3020008D3020008D30200087B
:10011000D3020008D3020008D3020008D30200086B
:10012000719E0008859E0008999E0008AD9E0008FB
:10013000C19E0008D3020008D3020008D3020008C1
:10014000D3020008D3020008D3020008D30200083B
:10015000D3020008D3020008D3020008D30200082B
:10016000D3020008D3020008D302000889A20008C5
:10017000D3020008D3020008D3020008D30200080B
:10018000D3020008D3020008D3020008D3020008FB
:10019000D3020008D3020008D3020008D3020008EB
:0801A000351F0008111F0008C3
:1001B00072B6394880F30888384880F3098838488F
:1001C0004EF60851CEF20001086040F20000CCF279
:1001D00000004EF63471CEF200010860BFF34F8F7D
:1001E000BFF36F8F40F20000C0F2F0004EF688516E
:1001F000CEF200010860BFF34F8FBFF36F8F4FF057
:100200000000E1EE100A4EF63C71CEF200010860EB
:10021000062080F31488BFF36F8F08F0CDFB08F041
:1002200083F94FF055301F491B4A91423CBF41F8BA
:10023000040BFAE71C49194A91423CBF41F8040BF0
:10024000FAE71A491A4A1B4B9A423EBF51F8040B6F
:1002500042F8040BF8E700201749184A91423CBFC6
:1002600041F8040BFAE708F0ABFB08F0A6FB144CCE
:10027000144DAC4203DA54F8041B8847F9E708F040
:1002800061F9114C114DAC4203DA54F8041B884754
:10029000F9E708F093BB000000040020000C0020E8
:1002A00000000008000000200004002020C5000815
:1002B000000C0020CC0F0020D00F0020A423002031
:1002C000A0010008A4010008A4010008A80100087A
:1002D0006EE700F000F8FEE72DE9F04F2DED108AF3
:1002E000C1F80CD0C3689D46BDEC108ABDE8F08F04
:1002F000002383F311882846A047002008F090FDD2
:10030000FEE708F04AFD00DFFEE7000053B94AB9F6
:10031000002908BF00281CBF4FF0FF314FF0FF300D
:1003200000F00CB8ADF1080C6DE904CE0AF006FB44
:10033000DDF804E0DDE9022304B07047704700BF38
:10034000014B1868704700BF000C0020032A70B4EE
:1003500012D940EA0105AD0704460B4620D11946E3
:10036000204653F8045B54F8046BAE4218D1043AAB
:10037000032A20461946F2D8541E72B103780A782F
:100380009A4208BF241806D00CE010F8013F11F87B
:10039000012F934206D1A042F7D1002070BC7047D4
:1003A000541EEBE7981A70BC704700BF844641EAC0
:1003B000000313F003036DD1403A41D351F8043BDD
:1003C00040F8043B51F8043B40F8043B51F8043B2F
:1003D00040F8043B51F8043B40F8043B51F8043B1F
:1003E00040F8043B51F8043B40F8043B51F8043B0F
:1003F00040F8043B51F8043B40F8043B51F8043BFF
:1004000040F8043B51F8043B40F8043B51F8043BEE
:1004100040F8043B51F8043B40F8043B51F8043BDE
:1004200040F8043B51F8043B40F8043B51F8043BCE
:1004300040F8043B51F8043B40F8043B403ABDD23D
:10044000303211D351F8043B40F8043B51F8043BDF
:1004500040F8043B51F8043B40F8043B51F8043B9E
:1004600040F8043B103AEDD20C3205D351F8043B6E
:1004700040F8043B043AF9D2043208D0D2071CBF3A
:1004800011F8013B00F8013B01D30B880380604663
:10049000704700BF082A13D38B078DD010F00303D9
:1004A0008AD0C3F10403D21ADB071CBF11F8013B49
:1004B00000F8013B80D331F8023B20F8023B7BE798
:1004C000043AD9D3013A11F8013B00F8013BF9D2C3
:1004D0000B7803704B7843708B788370604670475D
:1004E000F0B4860746D0541E002A3CD0CAB2034658
:1004F00002E014F1FF3436D303F8012B9D07F8D145
:10050000032C29D9CDB245EA05250F2C45EA05452E
:1005100033D9A4F11006360903F1200707EB0617BB
:1005200003F1100242E9045542E902551032BA4281
:10053000F8D1721C14F00C0F03EB021204F00F063A
:1005400013D0331F23F003030433134442F8045B36
:100550009342FBD106F003042CB1C9B21C4403F84A
:10056000011B9C42FBD1F0BC704734461346002C63
:10057000F3D1F8E714460346C2E71A462646E0E7F9
:1005800038B5124B1C68A26B05461AB10023C2E9AC
:10059000045338BD182000F0C7F80246A06378B1B4
:1005A000012000210A4B1360C2E904010B23094812
:1005B000094993810023C2E90101C2E9045338BD0E
:1005C000064B0748422100F055F800BF000C002000
:1005D0000E33CDAB34126DE6ECDE050050C40008DE
:1005E00068C4000838B51A4B1C68A26B92B1146934
:1005F00018495369184801FB04F100FB0313A4FBDD
:100600000045611C1D4445F1000323F00040C2E990
:10061000041338BD182000F087F80246A06388B1A3
:1006200001200021C2E904010A480C4C0C4B0D4981
:100630000D4D146053600B24034695609481C2E90C
:10064000041338BD094B0A484E2100F013F800BFCF
:10065000000C00202DF451582D7F954C0E33CDAB5E
:1006600034126DE62E7F954CECDE050050C4000878
:1006700068C4000800B50A4C2668054685B01C46CB
:10068000F06852B1074B0091CDE9013206492B4683
:10069000224600F021F800F0A7FD044B1A46F2E7CD
:1006A000000C00209CC40008ACC40008A8C40008CA
:1006B00008B513460022FFF7DDFF00BF0CB400B5FC
:1006C00083B004AB53F8042B019300F03BF903B063
:1006D0005DF804EB02B070470EB410B583B005AB03
:1006E000064C53F8042B01930146206800F02AF9C8
:1006F00003B0BDE8104003B0704700BF000C0020FD
:10070000704700BF704700BF704700BF704700BF11
:10071000704700BF704700BF01207047012070473D
:10072000704700BF704700BF024B0146186800F0D9
:1007300061B800BF000C0020024B0146186800F0B1
:1007400003B800BF000C002000293CD038B551F898
:10075000043C0C1F002BB8BFE418054601F098FAC2
:10076000234B1A682AB1A2420DD92168601882422F
:1007700023D0626028461C60BDE8384001F08EBA84
:10078000A34203D81A465368002BF9D111685018B8
:10079000A04219D024D821686018834206D0636033
:1007A00054602846BDE8384001F078BAD3E9000328
:1007B0000144636021605460F3E7D2E90002014420
:1007C00062602160D6E77047206801445018834278
:1007D0001160E6D1D3E90003014453601160E0E702
:1007E0000C232B602846BDE8384001F057BA00BF03
:1007F000D00F0020F8B5CD1C25F0030508350C2DD1
:1008000038BF0C25002D064633DBA94231D82A4FCC
:1008100001F03EFA3A6852B113685B1B04D43FE022
:1008200023685B1B29D522465468002CF8D17968CF
:1008300000293BD0294630460AF05AF8431C28D0FC
:10084000C41C24F00304A04205D0211A30460AF04B
:100850004FF801301DD02560304601F01FFA04F139
:100860000B0020F00700231DC21A01D01B1AA35051
:10087000F8BD0C2232600020F8BD0B2B05D8A24237
:10088000636811D05360E7E7144623601C44256079
:10089000E2E70C233046336001F000FA0020F8BD97
:1008A0000B2BF1D8536814463B60D5E730460AF06D
:1008B0001FF87860BEE700BFD00F00209368013BAF
:1008C000002B936011DA10B49469A34209DB0A2962
:1008D00007D01368581C1060197008465DF8044B67
:1008E00070475DF8044B00F09FBB1368581C106004
:1008F00019700846704700BF9BB1F8B513440F4606
:1009000006465D1E541E01E0AC4208D03A4614F87B
:10091000011F3046FFF7D2FF431CF5D1F8BD002080
:10092000F8BD0020704700BF936810B5144613B996
:100930005360184610BD00F0A3FE0023C4E9013344
:1009400010BD00BF2DE9F04F9FB08B4690461C466E
:10095000039018B18369002B00F0C580B34B9B4511
:1009600000F0C780B24B9B4500F0C780B14B9B4560
:1009700004BF039BD3F80CB0DBF86430BBF80C2049
:10098000DB0702D4970540F14381160740F1278128
:10099000DBF81030002B00F0228130238DF832304C
:1009A00098F800300594002120220B91A24E8DF87A
:1009B00031200127002B00F08580252B00F00D81D0
:1009C000454603E0252B00F09C8025466B786C1C87
:1009D000002BF7D1B4EB080A74D04246534659466F
:1009E0000398FFF789FF01306CD00B9B6A78534462
:1009F0000B93002A66D000234FF0FF320134069398
:100A0000CDE908338DF85B301C93079205E0069A18
:100A100007FA03F313432C4606932546052215F8DF
:100A2000011B304601F07CF8AA46831B0028EED15A
:100A3000069BD80644BF20228DF85B201907217839
:100A400044BF2B228DF85B202A295FD1059A1168BB
:100A5000043200290592C0F2958009916178A51CA5
:100A60002E296CD0754C0322204601F059F800283D
:100A70007ED0001B069B402404FA00F0034306933B
:100A800005F1010829786E488DF83010062201F032
:100A900047F800287CD06B4B002B6CD005AB009343
:100AA0005A46694B039806A9AFF300808146B9F115
:100AB000FF3F07D00B9B4B440B9398F80030002B63
:100AC0007FF47BAFDBF8643013F0010FBBF80C3020
:100AD00002D19A0540F1A3805B0600F193800B9848
:100AE0001FB0BDE8F08F00F0B3FC504B9B457FF486
:100AF00039AF039BD3F804B03EE7039BD3F808B0AB
:100B00003AE7B4EB080A3FF476AF66E7A1F13002AA
:100B1000092A88BFA246A3D8099B01E02C460135CB
:100B2000297803EB830302EB4303A1F13002092A86
:100B3000AA46F3D92E2904F10205099392D19AF815
:100B400001102A292ED1059B9AF802101A680792E3
:100B50000433002A05930AF103050AF1020337DB87
:100B6000364C032220469A4600F0DAFF002880D156
:100B7000A846554686E7059B073323F0070308334D
:100B8000059397E7494243F002030991069365E70D
:100B900005AB00935A462C4B039806A900F0F8F8D1
:100BA000814684E7A1F130020023092A079301D985
:100BB0002BE05546697803EB830302EB4303A1F175
:100BC0003002092A05F1010AF3D90235079349E7F2
:100BD0004FF0FF329A46079244E744460BE75946E6
:100BE000039800F081FA00283FF4D7AEDBF86430B8
:100BF000DD0707D4BBF80C309C0503D4DBF85800A4
:100C0000FFF790FD4FF0FF306AE7AA46013529E76C
:100C1000DBF85800FFF77EFDBBF80C20B5E6DBF8EB
:100C20005800FFF77FFDBBF80C3055E73CAD0008DE
:100C30001CAD0008FCAC0008DCC40008E4C40008DB
:100C4000E8C4000800000000F908000810B4044CD3
:100C500013460A46014620685DF8044BFFF772BE52
:100C6000000C00202DE9F0470C4691460A6989687E
:100C7000DDF820808A42B8BF0A46C9F8002094F8FF
:100C8000431006461F4611B10132C9F800202368FF
:100C900099065CD5D9F800200232C9F800202368F3
:100CA00013F0060F19461DD1E1688A1A002AD8BF31
:100CB000194617DD04F1190A002505E0E368D9F8A3
:100CC00000209B1AAB420CDD0123524639463046C8
:100CD000C047013005F10105F0D14FF0FF30BDE80C
:100CE000F087216894F84330003318BF01238A0647
:100CF0000AD5E1185A1C302081F84300224494F8A8
:100D0000451082F84310023304F14302394630465D
:100D1000C0470130E1D02368A268216903F00603CF
:100D2000042B1DD08A4226DD4FF00009521A91444F
:100D30001A34002501E04D451DDA012322463946CB
:100D40003046C047013005F10105F4D1C5E713F085
:100D5000060F13D094F84330003318BF0123D3E7B4
:100D6000D9F80000E3688A42A3EB000323EAE379A1
:100D7000DCDC002BDCDC0020BDE8F087E168D9F882
:100D800000208A1A002AD8BF194693DCAAE700BFC0
:100D90002DE9F0430C46097E85B06E2906461746BC
:100DA0000C98984604F1430E6DD039D9732900F0A0
:100DB000F68044D9752900F00481782940F011812A
:100DC00078232268DFF858C284F845300168150698
:100DD00051F8043B016040F1A180D10744BF42F0CB
:100DE00020022260002B00F093801022002184F862
:100DF00043106068A0600028C0F2C880216821F01C
:100E000004012160002B40F0A380002840F0C08046
:100E10007546082A00F0AC80AEEB0503236141E083
:100E2000632900F0E5801AD8002938D0582940F00D
:100E3000D88084F845102268DFF8E8C1C6E76F293A
:100E400000F0BF80702940F0CC802268DFF8D0C16C
:100E500042F020027823226084F84530B6E7642906
:100E600002D0692940F0BD8022680368110603F1B1
:100E7000040557D5196805600B46002959DBDFF8D2
:100E8000A4C10A22B5E70368226861691D1D0560D7
:100E900015061B6802D4500600F1BD8019600023BE
:100EA00075462361CDF800803B4603AA21463046B3
:100EB000FFF7D8FE013020D02A4623693946304654
:100EC000C047013019D022680398E368920719D50A
:100ED0001A1A002A16DD04F11909002504E0E36856
:100EE00003981A1AAA420DDD01234A4639463046B4
:100EF000C047013005F10105F1D14FF0FF3005B0D9
:100F0000BDE8F0839842B8BF184605B0BDE8F0834D
:100F1000226822F020022260102267E7500648BFB4
:100F20009BB25AE75106A5D5B3F9003005601946C2
:100F3000A3E76168A1602D200029C3F1000384F8B4
:100F4000430002DB22F004022260DFF8D8C00A224C
:100F5000754600E00B46B3FBF2F102FB1130934201
:100F60001CF8000005F8010DF4D2082A7FF454AFF4
:100F70002368DB077FF550AF626823699A423FF729
:100F80004BAF302305F8013C013D45E7002BDFD195
:100F90009CF8003084F8423004F1420539E70368D8
:100FA0006268191D01601D680021284600F0B8FD27
:100FB000002832D0401B60602061002384F8433059
:100FC00070E72268036812F0800F03F104051AD05D
:100FD0001B6805606F290CBF08220A22DFF844C095
:100FE00004E7012384F84210236104F14205E4E799
:100FF00003681A68191D0123016004F1420584F891
:1010000042202361D9E712F0400F0DBF1B68056035
:101010001B880560DEE7198041E76068CCE700BF08
:1010200004C50008F0C40008F8B50D46144606468D
:1010300008B1836943B3254B9C422AD0244B9C4280
:1010400029D0244B9C4208BFF468A389A269A260FE
:101050001A0722D5236903B322686169D31AEDB256
:1010600099422F4629DD0133A168501C0139A16046
:101070002060157062699A4216D0A389DB0701D5FA
:101080000A2D11D03846F8BD00F0E2F90F4B9C4212
:10109000D4D17468D9E7B468D7E72146304600F068
:1010A00023F838B92369D7E72146304600F03AF9EA
:1010B0000028E7D04FF0FF37E4E72146304600F044
:1010C00031F90028F6D122680123CDE73CAD0008B4
:1010D0001CAD0008FCAC0008024B0A46014618682B
:1010E000FFF7A2BF000C00203B4B70B51D68064601
:1010F0000C460DB1AB69DBB1384B9C421ED0384B6E
:101100009C424AD0374B9C4208BFEC68B4F90C2093
:1011100093B2190718D5206908B313F001022CD037
:10112000636900225B42A361A26060B3002070BDCE
:10113000284600F08DF9294B9C42E0D16C68B4F947
:101140000C2093B21907E6D4DD063CD5580726D407
:10115000206942F00803A3819BB20028DDD103F48B
:101160002072B2F5007FD8D03046214600F08AFCCC
:10117000A389206913F00102D2D1990758BF62698F
:10118000A2600028D2D1B4F90C301A06CFD543F0B2
:101190004003A3814FF0FF3070BDAC68B6E7616BD0
:1011A00051B104F14403994204D03046FFF7CCFA20
:1011B000B4F90C200023636300232069636022F0EC
:1011C00024022060C5E742F04002092333604FF05B
:1011D000FF30A28170BD00BF000C00203CAD0008B4
:1011E0001CAD0008FCAC000808B5062000F008FEA5
:1011F000012009F0A2FB00BF8B891A072DE9F041FD
:101200000C46804641D44A68002A59DDE66A002E21
:1012100053D00022D8F80050216AC8F8002013F4F7
:10122000805251D101234046B047431C5FD0A3896F
:10123000E66A216A5F0705D56268636B801A0BB1A5
:10124000236CC01A024600234046B047461C45D1D5
:10125000D8F80030B4F90C20002B55D01D2B01D04C
:10126000162B5AD123690022C4E90032616BC8F8F9
:10127000005011B304F14403994202D04046FFF7F5
:1012800063FA00206063BDE8F0810E69AEB10D68BD
:101290000E6099070CBF63690023AD1BA3600AE0D1
:1012A0002B463246A76A216A4046B8470028A5EB7C
:1012B000000506440ADD002DF2DC0020BDE8F081C7
:1012C0000A6C002AA2DCF8E7606DB3E7A38943F05B
:1012D0004003A3814FF0FF30BDE8F0812269A3896C
:1012E000226000226260DA04C0D56065BEE7D8F8EB
:1012F0000030002B9BD01D2B0CD0162B0AD0A389BD
:1013000043F04003A381D9E72169C4E90013D30462
:10131000ACD5EAE7C8F80050CFE742F04002A2811E
:10132000CCE700BF38B50B691BB30C46054608B1C6
:1013300083691BB3184B9C421ED0184B9C4220D093
:10134000174B9C4208BFEC68B4F90C308BB1626E4D
:10135000D00701D4990516D528462146FFF74CFF42
:10136000636EDA07054602D4A3899B050FD528468C
:1013700038BD0025284638BD6C68E5E700F068F800
:10138000D8E7AC68E0E7A06DFFF7C4F9E4E7A06D2B
:10139000FFF7C8F9EBE700BF3CAD00081CAD000843
:1013A000FCAC000820B1054B01461868FFF7BABF36
:1013B000034B0449186800F00DBB00BF000C00206F
:1013C000F8AC000825130008014900F003BB00BF7A
:1013D0002513000808B5436EDA0702D483899B05FC
:1013E00001D5002008BD806DFFF794F9002008BDED
:1013F00008B5436EDA0702D483899B0501D5002026
:1014000008BD806DFFF78EF9002008BD70B54A1E3B
:10141000682505FB02F50E4605F17401FFF7EAF9B0
:10142000044640B100210C30666005F1680221607D
:10143000A060FFF755F8204670BD00BF024B03497E
:10144000186800F0C7BA00BFF8AC00082513000800
:101450002DE9F84F05463A48FFF75CF9AB69002BD8
:1014600068D1384A2B6512683749A962AA42C5E992
:10147000123304BF0123AB61284600F073F86860A3
:10148000284600F06FF8A860284600F06BF86E68F8
:10149000E86000240423F3607466C6E90044B46085
:1014A000C6E90444B461214606F15C000822FFF756
:1014B00017F8DFF8A0B0AF68DFF89CA0DFF89C90C9
:1014C000DFF89C80214BC6F83080C6E9086BC6E97E
:1014D0000AA92146FB607C66C7E90044BC60C7E9F5
:1014E0000444BC6107F15C000822FEF7F9FFEE68D6
:1014F000174BC7F83080C7E9087BC7E90AA921461E
:10150000F3607466C6E90044B460C6E90444B4619B
:1015100006F15C000822FEF7E3FF0123C6E9086B31
:10152000C6E90AA9C6F830800548AB61BDE8F84FA6
:10153000FFF7F8B80248BDE8F84FFFF7F3B800BF6F
:1015400088230020F8AC0008C91300080900010036
:1015500012000200711E0008991E0008D91E000822
:10156000F91E000870B506462448FFF7D3F8244B4F
:101570001D68AB697BB34835D5E90134013B05D51E
:1015800025E0013B5A1C04F1680420D0B4F90C207A
:10159000002AF6D100251B4BE36004F15800656674
:1015A000FFF7B0F81548FFF7BDF82560C4E901550D
:1015B000C4E90455A5612946082204F15C00FEF740
:1015C0008FFFC4E90D55C4E91255204670BD2C6843
:1015D0002CB12546D0E72846FFF73AFFCBE7042198
:1015E0003046FFF713FF044628600028F1D1034876
:1015F000FFF798F80C233360E7E700BF9C23002037
:10160000F8AC00080100FFFF0148FFF783B800BFF6
:101610009C2300200148FFF785B800BF9C230020D1
:101620000148FFF777B800BF882300200148FFF783
:1016300079B800BF8823002008B50548FFF76AF88D
:10164000044B05491868BDE8084000F09DB900BF8B
:101650009C230020000C0020D513000808B5054B82
:101660000549186800F090F90448BDE80840FFF704
:1016700059B800BF000C0020F11300089C23002083
:101680009368002B00F002812DE9F04FB1F90C3086
:101690009BB20C46190783B08246904635D5226925
:1016A0009AB313F00202D8F800603DD00027D4F8B6
:1016B00028B0D4F820C0DFF8CC923D464D452B46EB
:1016C0003A4628BF4B4661465046D5B1D847002818
:1016D00040F3D280D8F808301B1A07442D1AC8F8F6
:1016E0000830002B00F0B780D4F820C0D4F828B020
:1016F0004D452B463A4628BF4B4661465046002D85
:10170000E4D1D6E900750836D8E721465046FFF700
:10171000EBFC002840F03081B4F90C30D8F80060C0
:101720009BB213F00202C1D113F0010940F0B08066
:10173000A76820684D46002D54D09A0540F1BC8022
:10174000AF42BB4600F2E78013F4906F2FD0D4E98C
:10175000041707EB4707A0EB010B07EBD777681CD3
:101760007F105844B8423A4684BF07463A465B0564
:1017700040F1E98011465046FFF73CF8002800F0A0
:10178000F5805A4621690190FEF710FEA289019B5F
:1017900022F4906242F08002A281A7EB0B0203EBDD
:1017A0000B00676123612060A2602F46AB465A465A
:1017B000494600F005FAA2682368D21B5B442F4615
:1017C000A26023600025D8F80830DB1BB944C8F8B4
:1017D0000830002B3FD0B4F90C30A76820689BB2CA
:1017E000002DAAD1D6E900950836A4E70BF108032D
:1017F00053E902679B460833002FF9D03A460A2185
:10180000304600F08DF9002853D00130A0EB0609D6
:101810004B46D4E904122068BB4228BF3B468842AD
:1018200003D9A5681544AB4219DC9A427DDC134606
:10183000A56A216A32465046A847051E1CDDB9EB51
:1018400005096BD00120D8F808305B1B2E447F1BA4
:10185000C8F8083013BB002003B0BDE8F08F314654
:101860002A4600F0ADF923682B44236021465046F8
:10187000FFF758FD0028E2D0B4F90C3043F04003E4
:101880004FF0FF30A38103B0BDE8F08F0020704718
:1018900033469146104617464E469B46002FA5D02C
:1018A0000028B5D13A460A21304600F039F900281F
:1018B000ABD17B1C9946ACE72369834215D36169A0
:1018C000A94212D82E4BA76A9D4294BF2B466FF0B7
:1018D00000434A4693FBF1F3504601FB03F3216AB0
:1018E000B847071EC8DDED1B6DE7AF4228BF2F4686
:1018F0003A46494600F064F9A3682268DB1B3A4483
:10190000A3602260002BEED121465046FFF70AFD6E
:101910000028E8D0B0E72F46AB4648E721465046BE
:10192000FFF700FD00288ED0A6E71A463146019346
:1019300000F046F9019BA1682268C91A1A44A16007
:1019400022601D467BE7504600F0AEF903460028B2
:101950007FF423AF21695046FEF7F6FEB4F90C3050
:101960000C2223F08003CAF8002087E70C23CAF872
:101970000030B4F90C3081E74FF0FF306CE700BF66
:10198000FEFFFF7F00FCFF7F2DE9F04110F14807CB
:101990001BD088460026D7E90154013D0FD4A38906
:1019A000012B05F1FF3506D9B4F90E30013320467D
:1019B00001D0C04706436B1C04F16804EFD13F68B7
:1019C000002FE8D13046BDE8F0813E463046BDE804
:1019D000F08100BF2DE9F84310F148071FD0884679
:1019E00006464FF00009D7E90154013D11D4A389FF
:1019F000012B05F1FF3508D9B4F90E30013321462A
:101A0000304602D0C04749EA00096B1C04F1680463
:101A1000EDD13F68002FE6D14846BDE8F883B946CE
:101A20004846BDE8F88300BF70B50C46B1F90E100A
:101A3000002996B016461D4613DB6A4608F065FF7E
:101A400000280EDB019A02F47042A2F50052B2FAAD
:101A500082F252094FF4806300202A60336016B08E
:101A600070BDA38900221B062A6004D540230020F4
:101A7000336016B070BD4FF480630020336016B041
:101A800070BD00BF8A8992070B4606D501F1470257
:101A900001211A60C3E90421704770B582B001AB1F
:101AA0006A460C460646FFF7BFFF009905463046DA
:101AB000FEF7A0FEB4F90C3070B11649B162019A7C
:101AC0000099206043F08003A381C4E904018AB92E
:101AD0002B43A38102B070BD9A05FBD423F003030E
:101AE00004F1470243F002030121A3812260C4E90B
:101AF0000421EFE73046B4F90E1008F012FF10B9D8
:101B0000B4F90C30E4E7A38923F0030343F00103A5
:101B10001BB2DDE7C9130008000000000000000050
:101B200001F0FF01102A2BDB10F0070F08D010F88E
:101B3000013B013A8B422DD010F0070F42B3F6D192
:101B4000F0B441EA012141EA014122F007047FF0AB
:101B500000070023F0E80256083C85EA010586EA02
:101B6000010685FA47F5A3FA87F586FA47F6A5FA3E
:101B700087F68EB9EED1F0BC01F0FF0102F007024A
:101B800032B110F8013B013A83EA010313B1F8D1F5
:101B90000020704701387047002D06BF35460338D6
:101BA000073815F0010F07D1013015F4807F02BF0F
:101BB000013015F4C03F0130F0BC0138704700BF60
:101BC0008842F0B40DD98B1883420AD9841832B1F7
:101BD000224613F8014D02F8014D9942F9D1F0BCAB
:101BE00070470F2A0ED80346541E002AF7D001343E
:101BF0000C44013B11F8012B03F8012FA142F9D14C
:101C0000F0BC704740EA01039B073BD1A2F11007EB
:101C10003F0901F1200606EB071601F1100300F160
:101C2000100453F8105C44F8105C53F80C5C44F852
:101C30000C5C53F8085C44F8085C53F8045C44F806
:101C4000045C1033B34204F11004EAD17B1C1B0185
:101C500012F00C0F194402F00F05034415D0043D97
:101C6000AD0803EB850C1C1F0E4656F8047B44F8A8
:101C7000047F6445F9D10135AD002B44294402F0BD
:101C80000302B1E7541E0346B1E72A46ACE700BFA2
:101C90000148FEF73FBD00BF8C2300200148FEF73E
:101CA00041BD00BF8C23002009B3F8B51446CAB16A
:101CB00006460D4600F024F9A04202D32F463846CE
:101CC000F8BD21463046FEF795FD07460028F6D0C0
:101CD00022462946FEF76AFB30462946FEF734FDC8
:101CE0003846F8BD2746FEF72FFD3846F8BD1146A9
:101CF000FEF780BD10B580210446FEF77BFD6064D1
:101D000040B1031F00227C3043F8042F8342FBD1F3
:101D1000002010BD4FF0FF3010BD00BF436C0BB171
:101D200000207047E6E700BF1F2970B5054608D8B8
:101D3000436C16460C464BB153F8240043F824601C
:101D400070BD162202604FF0FF3070BDFFF7D2FF6A
:101D500008B96B6CF0E74FF0FF3070BD1F2938B544
:101D600021D8426C05460C466AB152F8213053B175
:101D7000012B16D0591C10D00025204642F82450C3
:101D80009847284638BD284600F070F8224601469C
:101D90002846BDE8384000F055B8162303600120FE
:101DA00038BD002038BD162303604FF0FF3038BD2A
:101DB0001F2921D838B5436C05460C4683B153F82A
:101DC000242003EB84034AB1511C10D0012A0CD00B
:101DD000002520461D609047284638BD012038BDAB
:101DE000FFF788FF28B96B6CE9E7032038BD0220B4
:101DF00038BD4FF0FF3038BD4FF0FF30704700BFA7
:101E0000024B01461868FFF7A9BF00BF000C002075
:101E1000024B0A4601461868FFF786BF000C0020F7
:101E2000034B1868436C0BB10020704762E700BF9A
:101E3000000C0020024B01461868FFF7B9BF00BF35
:101E4000000C002038B50B46074C054611461846D5
:101E50000023236008F067FD431C00D038BD2368D1
:101E6000002BFBD02B6038BDA023002008F063BD01
:101E700010B50C46B1F90E1008F02FFD002803DB59
:101E8000636D0344636510BDA38923F48053A3816C
:101E900010BD00BF002070472DE9F0411646B1F992
:101EA0000C201F46D3050C460546B1F90E1009D487
:101EB00022F48052A2813B4632462846BDE8F041DA
:101EC00008F012BD0022022308F00CFDB4F90C202A
:101ED000B4F90E10ECE700BF10B50C46B1F90E10C6
:101EE00008F000FDA389421C0EBF23F4805343F485
:101EF00080536065A38110BDB1F90E1008F0F6BCE7
:101F000051F8043C181F002BBCBF0B58C018704779
:101F100010B5054C237833B9044B13B10448AFF323
:101F200000800123237010BDD80F002000000000A6
:101F300020C5000808B5034B1BB103490348AFF3A4
:101F4000008008BD00000000DC0F002020C5000854
:101F5000064A138830B18B2B06D8013313807047A3
:101F6000013BFBE7002BFBD1704700BF2C0E00208C
:101F700038B545F66753984209D845F661539842FB
:101F800007D820F00403E12B51D039285BD001247D
:101F900021E0A0F5BA4063388C78042835D8DFE812
:101FA00000F0030A21294C000CB9002413E0294851
:101FB00000F058FBF9E784B1274B1C7884F001044A
:101FC0001C7024B145F6064003F044FFEDE745F6EA
:101FD0000F4003F03FFF204638BD45F6645000F047
:101FE000BDF9F8E71CB10120FFF7B2FFDDE745F6C8
:101FF0006550F4E734B1194A1388002BD5D0013B62
:102000001380D2E745F66650E9E7154D2CB1154B24
:102010001B7843B92B7801332B702B78022BC4D15A
:1020200000242C70D7E7A82004F0C6FDF5E78C78D3
:102030000C4A01235CB11370CDE7002CB5D0A6206B
:1020400004F0BAFDB1E78C78074A0123F2E7147077
:102050009DE700BFE4AE0008F60F00202C0E002024
:10206000F70F0020F50F0020F40F0020704700004C
:1020700038B51E4D2B787BBB1D4C23787BBB1D4B8D
:102080001B78012B0BD0022B1BD0FBB919B1FA2006
:1020900004F092FD07E0F92004F08EFD0DE049B157
:1020A000AB2000F071F92B788BB1A92004F084FDEE
:1020B000012038BDAC2000F067F92B788BB1AA2045
:1020C000F4E709B1A920E3E7AA20E5E749B12378BD
:1020D000002BEDD0BD20E9E70029E6D1EFE700298C
:1020E000F8D12378002BE3D0BE20DFE7F50F0020E6
:1020F000F40F0020F70F002070B504F0D1FA41076B
:102100000BD500231946FF22432002F06DFC00236B
:10211000FF221946462002F067FC04F0C1FAC2070C
:102120000BD5FF2319460022492002F05DFCFF2356
:10213000002219464C2002F057FC04F0B1FA830744
:1021400011D500231A46FF21502002F04DFC002338
:102150001A46FF21532002F047FC00231A46FF21B4
:10216000572002F041FC484B1B782BB100231A4644
:10217000FF210B2002F038FC444B186800F075FA80
:10218000022850D003286CD001287BD100231A46A6
:10219000FF21472002F028FC00231A46FF214A2095
:1021A00002F022FC00231A46FF214D2002F01CFC05
:1021B000374D002337201A46FF2102F015FC2888EE
:1021C0000A2808D80023334C1A46FF21205CBDE8BA
:1021D000704002F009BC8B2814D82E4E00230A242C
:1021E0001A46FF21B0FBF4F0305C02F0FDFB2B88B7
:1021F000B3FBF4F004FB103398B20023264C1A46CC
:10220000FF21E3E700231A46FF21392002F0ECFB0F
:1022100000231A46FF213E2002F0E6FB00231A4667
:10222000FF214E20D3E71D4D0C24FF2315F8010B91
:1022300000221946013C02F0D7FB14F0FF04F4D150
:10224000FF23194622464D2002F0CEFBFF231946FC
:102250002246512002F0C8FBFF2322461946542093
:10226000B5E700231946FF22542002F0BDFB0023EE
:102270001946FF22582002F0B7FB0023FF2219461F
:102280005C20A4E770BD00BFF60F0020C014002042
:102290002C0E0020E7AE000801AF0008F5AE0008E4
:1022A00008B504F0FDF9C30702D5532004F084FCFF
:1022B00005F0E0FDBDE80840A922A421002003F0BC
:1022C00093B8A0F58073B3F5F85F10B526D210F47B
:1022D000805F00F4807300F4007400F4806100F407
:1022E00000620DD0002B0CBF002010200CB140F07C
:1022F000200009B140F040000AB140F0800010BD5C
:10230000181E18BF01200CB140F0020009B140F0C6
:102310000400002AF3D040F00800F0E70020EEE7C8
:1023200010B50C46FFF7CDFF2346BDE81040184717
:10233000A0F1E003072B10B5044600D940B90549C8
:102340002046FFF7EDFFE0B2BDE8104004F042BBCD
:102350000149F6E7C56B0008ED6F000810B50446AB
:10236000C0B204F0BBFBA4F1E003072B00D92CB9E9
:1023700003492046BDE81040FFF7D2BF0149F8E706
:10238000D76B0008FF6F000810B50446FFF7D0FFB9
:102390004FF47A7006F049FD2046BDE81040FFF783
:1023A000DDBF0120704708B5FFF7E2FD08BD7047AB
:1023B00008B5FFF7FCFF08BD13B502AB03E9030046
:1023C0000F4B1B78B3B99DF8023073B16AB105F0B9
:1023D000C5F904460146009805F080F900992046A9
:1023E00002B0BDE8104000F085B9009805F098F9FA
:1023F0000446F3E7009805F0B1F90099F0E700BF53
:102400007014002003460A4600689988FFF7D4BF7D
:102410000120704710B500210446FFF7F3FF214665
:10242000FFF7C6FF10BD08B500F052FB00F056F9EB
:1024300003F00AF9BDE8084000F06BBB08B504F0F2
:102440002BF8BDE8084000F068BB704708B504F001
:10245000F9FDFFF7FAFF46F2A81006F0E6FCBDE82A
:10246000084005F019BD000038B501210546FFF709
:10247000C9FF2946044603F095FF2946204603F08C
:10248000BDFE08B9002038BD29462046FFF78BFF66
:102490000028F7D02946204603F0BAFF0028F1D0E3
:1024A0002946204603F07CFC0028EBD02946204634
:1024B00003F0D0FC0028E5D02946204603F0A4FD17
:1024C0000028DFD02946204603F036FB0028D9D06B
:1024D000AB787BB145F65B539C4232D00ED845F6C3
:1024E00001439C4218D045F6DF439C4226D0B4F508
:1024F000B84F0ED02846FFF754FFC4E745F65C53AB
:102500009C4221D045F65D539C42F3D105F0C6F9BB
:10251000F0E7FFF79BFFB5E70D4A1078C0F3000323
:1025200083F0010363F3000010F00104107003D086
:10253000084800F04BFFA5E70748FAE705F032FB33
:10254000A0E705F0B7F9D5E705F0B7F9D2E700BF86
:10255000F80F0020D0B10008E1B10008F8B5174B22
:1025600017491F5C174BC20800F007008D5C164925
:102570009B5C8E5C0341054113F0010446FA00F0B8
:1025800005F0010500F0010602D0E12004F022FA76
:1025900015B1E62004F01EFA384604F00DFB15B123
:1025A000E62004F09BFA14B1E12004F097FA26B17A
:1025B000BDE8F8402C2004F0FFBAF8BD13B20008C3
:1025C000F3B1000893B2000803B200082DE9F0410E
:1025D000234F04460E464FF00A08207800283DD0CD
:1025E000012838D16378012B0ED1A078A51C04F006
:1025F000E3FA2C4601343546002DEED06420013D2F
:1026000006F013FCEDB2F7E7022B04D1A078A51C6D
:1026100004F0E0F9EDE7032B04D1A078A51C04F049
:102620005DFAE6E7042B01D00134E3E7A378002547
:102630000234DA5D520704F1010106D4002DD9D02D
:10264000642006F0F2FB013DF8E7303B08FB05355E
:1026500063780C46EDE7FFF781FFCBE7BDE8F0813B
:10266000F5AB00080021FFF7B1BF020C002A0346BA
:102670000BBF03461346002010201A0A1CBF134646
:1026800008301A091EBF04301346C0B29A081EBF94
:1026900002301346C0B25B081CBF0130C0B27047A5
:1026A000030943EA0013DBB298009B1003F03303E5
:1026B00000F0CC0018434300401003F0AA0300F0E0
:1026C000550018437047704708B5FFF7FCFF08BD79
:1026D0000120704708B5FFF7FBFF08BD704710B534
:1026E0000446FFF7F1FF2046FFF7F4FF10BD00207E
:1026F00070477047C1F307230B2202FB0030C00074
:10270000034B50FA81F182B033F8110002B07047E8
:1027100010AF0008014B33F810007047D2B2000828
:1027200010B500F0D5F8B0F5A04F044630D2B0F5A2
:10273000804F80F08980DF2812D8BF2878D8A7285A
:102740000AD8A42868D8012804D0031F9BB2A12B63
:1027500028BF0024204610BDBF2861D10024F9E71E
:10276000B0F5005F0BD2FF28F4D8E728F2D9A0F12A
:10277000ED039BB2122BF1D840F4A04027E0B0F556
:10278000405F5BD30205C3B25BD443F44044E1E74E
:10279000B0F5AA4F1DD2B0F5A84FC3B272D2B0F5B2
:1027A000A64F0AD2B0F5A44F63D2B0F5A24F50D3D2
:1027B0004AF2F10040EA0324CCE79C08012003F030
:1027C000030300FA03F343EA441040F40A4084B2DE
:1027D000C0E7B0F5B44F0FD2B0F5B24F5ED2B0F54E
:1027E000AC4F52D3A0F5B0439BB2FF2BB6D84AF200
:1027F000F00040EA0420EAE7A0F5C0439BB2B3F53D
:10280000005FABD2C0F3042000F0E2F8000200F455
:10281000F850E4B220433EE0243840F48040D6E74C
:102820005834E4B2234B33F8140040F4884491E761
:10283000C03880B2FFF76EFF04468BE7C0F30B0091
:10284000F8E743F4484485E7C0F30B0040F4204424
:1028500080E7C0F30114C3F38100400140EA042083
:1028600003F00303012404FA03F3184340F40C407B
:10287000ADE79C08012003F0030300FA03F343EAE9
:102880004410F3E74AF2F40094E7C0B200F0A0F875
:10289000000200F4F85040F400545BE700F00F0031
:1028A00000F096F8C4F3031440EA042040F410400A
:1028B0008DE700BFA4B2000807B5ADF80410019978
:1028C000FFF718FF03B05DF804EBFFF729BF000026
:1028D000E7284DD8DF2807D8312861D00ED829281D
:1028E00057D02A2863D07047A0F1E003072B3FD8C8
:1028F000DFE803F0123E2126303E3A3F392804D06B
:10290000822802D035283DD07047304B1B7813F019
:10291000030F18BFE02070472C4A1378D9074DD415
:10292000527812F0010F23D013F0100F08BFE320EC
:1029300018BF00207047254B1B7813F0040FF2E7F7
:10294000224A137859073BD45278D2073AD413F06D
:10295000100FEDE71D4B5A78910709D51B7813F03E
:10296000100F08BFE720E3E7184B1B781A07F6D4CF
:102970007047164A1378190726D452789207E6D57D
:10298000E420F5E7114B1B7813F0200F18BF292026
:1029900070470E4B1B7813F0200F18BF352070477F
:1029A0000A4B1B7813F0400F18BF2A207047074BC3
:1029B0001B7813F0400F18BF312070473920704743
:1029C000E2207047E0207047E6207047441700205F
:1029D000294A1378590707D500F01801082927D18B
:1029E00000F0F70040F00400190707D500F01801C7
:1029F000182926D100F0E70040F014005278D107E2
:102A000007D500F01801082924D100F0F70040F0A4
:102A10000100920707D500F01802182A23D100F010
:102A2000E70040F01100DB0648BF00F0E700704708
:102A300000F01401042904BF00F0FB0040F008007E
:102A4000D2E700F01401142904BF00F0EB0040F0BD
:102A50001800D3E700F01101012904BF00F0FE00C7
:102A600040F00800D5E700F01102112A04BF00F081
:102A7000EE0040F01800D6E7441700200020704711
:102A8000014B1860704700BF300E0020014B1B68DF
:102A9000184700BF300E002004F0F8BF08B500F062
:102AA00029F94FF47A7006F0C0F900F023F90120FB
:102AB00000F038F8030705D5FFF7EEFFBDE8084042
:102AC00005F0EAB908BD08B5FFF7E8FF08BD00004A
:102AD00008B504F0E5FF08B905F064F804F0EAFF72
:102AE000084B187004F0ECFF074B1880FFF7EBFF62
:102AF00004F0E3FF04F083FD044B1868BDE80840D0
:102B000004F099BDF80F002044170020C0140020E5
:102B1000704708B5FFF7FCFF08BD08B5FFF7A6FA38
:102B200008BD0000014B185C704700BF5117002022
:102B30002DE9F0410F48104DDFF84C800F4F104E3B
:102B400000F044FC00242146404600F03FFC38469B
:102B500000F03CFC15F8010BFFF7A2FD01463046E2
:102B600000F034FC0134074800F030FC0B2CEAD1B3
:102B7000BDE8F081D2B200085117002005BF00085F
:102B8000E6B2000805BE0008E1B20008032006F026
:102B90004CB900BF00BF00BF00BF00BF00BF00BFF7
:102BA00000BF00BF00BF00BF00BF00BF00BF00BF2D
:102BB00000BF00BF00BF704708B5FFF7E7FF08BDC3
:102BC00008B5202282F31188012100F00F039940FB
:102BD00020F00F0007F07FF9002383F3118808BD70
:102BE00038B50C4D0B2455F8040B421C01D0FFF7EF
:102BF000E7FF013C14F0FF04F5D1074D082455F818
:102C0000040B431C01D0FFF7DBFF013C14F0FF0471
:102C1000F5D138BD0CB30008ECB200082DE9F8433B
:102C2000254F57F821300646581C0D4640D020222B
:102C300082F311884FF0010823F00F0903F00F030E
:102C400008FA03F4214642464846A4B207F043F985
:102C5000A9F81A40002484F31188FFF79AFF174857
:102C60002346A14650F8042B511C23D022F00F011B
:102C700002F00F02096921FA02F2D2071AD408FA07
:102C800003F254B2013344EA0904082B5FFA84F9D1
:102C9000E8D157F82500431C01D0FFF791FFB9F1A7
:102CA000000118BF01212846FFF786FF06F80590AE
:102CB000BDE8F8830024E5E70CB30008ECB2000897
:102CC00008B5FFF78DFF094A002353601360C2F86F
:102CD0000730074A0B2053601360C2F8073000F03A
:102CE00039F8BDE80840FFF79EBB00BF461700203B
:102CF0005117002030B585B00024CDE90144CDF84E
:102D00000B40E1B201A80134FFF788FF0B2CF8D18A
:102D10000E4D224601A92846FDF718FB002814BFD6
:102D20000124002407D001AA03CA9378696011889E
:102D300028602981AB720649044823460B2200F023
:102D40000BF8FFF77BFB204605B030BD461700208F
:102D50005117002070470000F8B50F4C06460F468B
:102D600015462BB10123237005F068F80B4B186052
:102D700023782BB1094B186805F088F8042808D887
:102D8000F8BDF25CFA5401339D42FADC0023237053
:102D9000F6E70023F8E700BFF90F0020FC0F002042
:102DA00070472DE9F04F8BB00746149C9DF854B046
:102DB000169816468846DDE918520CB922F0100222
:102DC00012F48061019100D014B312F0200F14BFEF
:102DD0004FF041094FF06109A4460DF1080A0024A3
:102DE000A9F10A09BCFBF0FE00FB1ECE5FFA8EF1D2
:102DF000BEF1090F94BF30314944C9B284450AF885
:102E0000011BBCFBF0F104F1010401D3202C12D111
:102E100012F0020A23D102F0010E4DB1BEF1000FF3
:102E200006D0BBF1000F02D112F00C0F00D0013D13
:102E30004FF0300C07E08C46D4E7202C06D002A9D6
:102E400001F804C001341799A142F6D84FF0300CB4
:102E5000BEF1000F03D0A54201D91F2C42D9D106E3
:102E600020D50199002943D1002C41D01799A142C6
:102E700001D0AC423CD1611E39D0102842D1023C75
:102E8000910641D41F2C18D80AA92144782001F8B2
:102E9000200C01341F2C10D80AA92144302001F83D
:102EA000200C01341F2C08D8BBF1000F32D00AA926
:102EB00021442D2001F8200C0134920749D0B1465D
:102EC000A1444846A9EB0402002C46D1BAF1000FF8
:102ED00005D0A9EB0609A94506EB090045D30BB0BF
:102EE000BDE8F08F02A901F804C00134B0E70C4638
:102EF0001028C5D00228CDD11F2CDED80AA9214424
:102F00006220C4E70C46F5E71F2CD6D80AA9214455
:102F10005820BCE7500703D50AA921442B20C9E754
:102F20001107CAD50AA921442020C3E74146202021
:102F30000193B847019B09F101094D450BEB0902CB
:102F4000F4D8A5EB0409A54238BF4FF00009B144FD
:102F5000B6E7A146A6EB040BEFE7013C02A8414609
:102F6000005D0193B847019BABE702464146202034
:102F7000019309F10109B847019BACE708B1FFF7DC
:102F800085BD70472DE9F04F8DB000290693AE4BFB
:102F9000169E904614BF814699460025069B1878D8
:102FA00058B945452CBF08F1FF322A464346002058
:102FB000C84728460DB0BDE8F08F069B252803F1D1
:102FC0000103069306D02A466C1C43460791C84766
:102FD00025460EE1002206E02D2B14D0302B0CD11B
:102FE00042F001020690069810F8013B2B2B0DD001
:102FF000F2D8202B0DD0232B0ED0A3F13004092CB6
:1030000028D8002710E042F00202EBE742F0040269
:10301000E8E742F00802E5E742F01002E2E70A249E
:1030200004FB0737303F0690069810F8013BA3F1E8
:103030003004092CF3D9069B1B782E2B4BD1069B11
:10304000581C5B78A3F13004092C42F4806239D813
:10305000002411E02A2B08D156F8047B0690002F9B
:10306000BCBF42F002027F42E5E70027E3E70A2007
:1030700000FB0434303C604684461CF8013BA3F15D
:10308000300EBEF1090FF2D9034613F801CBBCF1A3
:103090006C0F29D022D8BCF1680F2ED0BCF16A0F7A
:1030A00036D0034613F8010B069378288BD8612895
:1030B00031D8252887D0582885D142F020024FF0FA
:1030C000100C6FE02A2B07D156F8044B069824EA1F
:1030D000E4740230D8E706980024D5E7BCF17A0FF3
:1030E000DFD142F48072DDE790F801C0BCF16C0FD3
:1030F000F7D142F44072831CD4E790F801C0BCF1D0
:10310000680F02D042F08002CCE742F0C002F2E742
:1031100042F40072C6E7A0F16203162B3FF653AFEC
:103120000FF2040C5CF823F0853100084D320008E2
:1031300085310008C72F0008C72F0008C72F0008D7
:10314000C72F000885310008C72F0008C72F0008C7
:10315000C72F0008C72F0008C72F000885310008B7
:1031600095330008C72F0008C72F0008C932000890
:10317000C72F000885310008C72F0008C72F000897
:103180008531000878289AD06F2800F018816228CD
:1031900000F01881692822F010024FF00A0C03D0C9
:1031A000642801D022F00C02530548BF22F001022E
:1031B000692802F4007301D0642826D1002B7FF423
:1031C000EDAED30506F1040A15D53368CDE902C486
:1031D000CDE90472002B4FEAD3720192B8BF5B4273
:1031E00000932A46434648460791FFF7DAFD5646C4
:1031F00005460799D2E612F0400F336801D0DBB2E2
:10320000E4E7160648BF1BB2E0E7002B7FF4C6AE2A
:10321000D00506F1040A06D5CDE90472CDE902C451
:1032200001933368DCE712F0400F336807D0DBB25C
:10323000CDE904720022CDE902C40192D0E7100664
:1032400048BF9BB2F4E700BFA12D000812F00204B2
:1032500026D04FF0010A56F8040B079143462A4640
:10326000C0B2C84705F1010B07995CB354465A46F2
:1032700020E0079143462020C84707990AEB050242
:103280000AF1010A5745F4D8002F07F1FF3308BFB0
:10329000002307F1010A1D4408BF4FF0020ADAE7D4
:1032A000A246EBE7079143462020551CC8470799E3
:1032B00001342A46BC42F5D3A7EB0A03574538BF71
:1032C00000239B445D4669E63346002C53F804AB6B
:1032D000079314BF23464FF0FF335344D3469BF864
:1032E000000008B15B4511D112F48063ABEB0A0B0F
:1032F000089302D0A34528BFA34612F00203099306
:103300001BD1ABEB05032A460A9309E00BF1010B35
:10331000E5E70B9143462020561CC8470B993246DF
:103320000A9B1344BB42F4D3A7EB0B035F4538BFA2
:1033300000230BF1010B1D449B445646A5EB0A0AE2
:1033400005E01C460A9143462A46C8470A990AEBFB
:10335000060516F8010B28B1089B002BF2D0631E5E
:10336000002CEED1099B9BB12A46ABEB050406E08D
:10337000089143462020561CC84708993246A31896
:10338000BB42F5D3A7EB0B035F4538BF00231D44B9
:10339000079E03E642F021020823CDE9034305928C
:1033A00000231022CDE9013256F8043B00932A464F
:1033B000434648460791FFF7F4FC054619E74FF0EE
:1033C000080CEFE64FF0020CECE600BF0FB41FB59F
:1033D00006AA02A952F8043B0392009204484FF057
:1033E000FF32FFF7CFFD05B05DF804EB04B0704786
:1033F0007D2F00081FB50A4B0A4A1B7802930A4B1F
:103400000A491B7801930A4B0A481B7800930A4B20
:1034100012781B780978FFF7D9FF05B05DF804FB37
:103420003B0E0020350E00203A0E0020340E002006
:10343000370E002038B30008360E002010B50146C4
:1034400004460548FFF7C2FF0120A04004F0D7F86A
:10345000BDE8104003F0F6BDB5B3000810B5431F3A
:103460008CB03E2B00F21481DFE813F09300830050
:1034700099003F00120112017F0012011201C200E7
:103480001201D100F9001201120112011201E20031
:1034900012011201E0001201AE001201120110012E
:1034A0001001100110011001100110011001100194
:1034B0000901120193007900120112011201120197
:1034C000120112011201120112011201090112016D
:1034D00012017F0012010D010D010D010D010D0101
:1034E0000D010D010D010D01090104F0E6FA01467F
:1034F0006A48FFF76BFF04F0DDFAC0F3C0030193E5
:10350000C0F38003014600F001020093C0F34003C2
:103510006348FFF75BFF04F0D3FAC0F3C0130793CF
:10352000C0F380130693C0F340130593C0F3001358
:103530000493C0F3C0030393C0F380030293C0F36A
:1035400040230193C0F300230146009300F00102E1
:10355000C0F340035348FFF739FF012017E05248FA
:10356000FFF734FF04F01EFBF7E75048FFF72EFF8C
:10357000F3E74F4A4F48137823F00F031370FFF718
:1035800025FF4D48FFF722FF4C4B012018700CB06F
:1035900010BD4B48FFF71AFFFEF758FFDDE7444C1C
:1035A0002378C3F3000282F0010262F30003237068
:1035B000DB0701D54348D9E74348FFF707FF2378E6
:1035C00023F00E032370C8E7394C2378C3F340027D
:1035D00082F0010262F341039807237006D53B484D
:1035E000FFF7F4FE237843F00103EBE73848BDE72B
:1035F0002F4C2378C3F3800282F0010262F382032E
:103600005907237001D53348EAE73348AEE7284C21
:103610002378C3F3C00282F0010262F3C3031A07E6
:10362000237001D52D48DBE72D489FE72D489DE706
:1036300003F036F82C4B0B901A782C4B2C481B7847
:103640000A920993047804F0F9FBE409CDE90040FB
:10365000DDE909320B992748FFF7B8FE7DE703F053
:10366000F1FC23490B78C3F3C01282F0010262F32C
:10367000C7130B701B064CBF1F48204876E700207D
:10368000FFF7DCFE69E73938C0B2F9E71D38FBE720
:103690001B48FFF79BFE002079E700BFBAB3000884
:1036A000D7B3000820B4000805B5000816B5000817
:1036B000F80F0020C8B60008EFB600080010002080
:1036C000F3B600080FB700081BB7000828B70008BA
:1036D00035B7000843B7000852B7000862B70008C2
:1036E0006EB700087BB70008AC0F00206016002002
:1036F0004417002059B80008DDB80008E7B80008F2
:10370000F4B80008292810B5614C55D029D81328E1
:103710005FD015D8072800F093800B2834D05D487F
:10372000A1E00A215C4B1B68002BF8D01A780A44F0
:10373000FF2A40F3A380FF221A701978574858E0F7
:10374000142839D0A0F11E03092BE8D81D38C0B2C7
:103750002070013805286DD8DFE800F0414E545A3A
:103760006066382810D04F38C3B2032BD7D803284F
:10377000D5D801A353F820F0233700086D3800088E
:1037800073380008793800084548FFF71FFEFFF737
:1037900031FE444801220521FFF718FE2178002957
:1037A00070D0414B41481A68414BBDE81040002A97
:1037B00008BF1A46FFF70ABE3E48FFF707FE237808
:1037C000002B64D0344A00231360374A23701360FF
:1037D000E4E73948FFF7FAFDFFF70CFEDEE72E4B72
:1037E000364A1A60304B364A1A6021780029D5D003
:1037F0003448FFF7EBFDD1E7274B334A1A602A4BD9
:10380000324AF1E7244B324A1A60274B314AEBE740
:10381000214B314A1A60244B304AE5E71E4B304AAF
:103820001A60214B2F4ADFE71B4B2F4A1A601E4BB1
:103830002E4AD9E7002317482370FFF7C7FDD4E7C6
:103840001E4B2B481E221A701F4B32221A70204B1F
:103850000A221A70204B14221A70214B08221A7067
:10386000214B28221A70FFF7B1FD97E76FF009018D
:1038700058E74FF0FF3155E7012153E7002AB8BF61
:10388000002259E7BDE810401A48FFF79FBD10BD60
:10389000081000203CBA00080C1000205ABC000898
:1038A000F6B8000806B900080410002049BA00085C
:1038B000F2B80008D2B90008D5B90008340E0020CB
:1038C000E3B90008B8BC0008350E0020ECB90008C8
:1038D000360E0020F8B90008370E002005BA00089F
:1038E0003A0E002014BA00083B0E002027BA000848
:1038F0003FBA000852BA0008002070470020704705
:1039000070B5264E3478012C054614D0022C3FD0D9
:10391000002C40D103F0D4FF22280AD12846FFF71B
:10392000EBFF18B92846FFF799FD00E0012000F0F1
:103930000104204670BD03F0C3FF2228284605D1AC
:10394000FFF7DAFF0028EDD02046F0E7FFF7D6FFBB
:103950000028EED1142D1ED008D80B2D0AD0102D22
:1039600010D00F48FFF732FD0024E2E7292D12D0D6
:10397000382DF6D10B48FFF729FD0B48FFF726FD40
:103980000124D6E7022338203370FFF7BBFED0E7CF
:10399000FFF7B8FEF4E700243470CAE700100020F7
:1039A000F4B80008C8B60008EFB60008194B1B7839
:1039B000D90709D5184B187800EB800080087F28BC
:1039C00024D828B3C0B270479A0705D5124B18788F
:1039D00000EB80004008F2E75B0704D50E4B187837
:1039E00000EB8000EBE70D4B1B786BB10C4A0A49EA
:1039F000127808789342F3D210FB03F000EB8000BA
:103A0000B0FBF2F080B2DAE70520DBE77F207047F9
:103A1000012070471A100020360E00201B100020D5
:103A2000370E0020154B1B78D90705D5144B187895
:103A3000800800B3C0B270479A0703D5104B1878BE
:103A40004008F6E75B0705D50D4B18787F28F0D9BD
:103A50007F2070470B4B1B785BB10B4A08491278EB
:103A60000878934236BF10FB03F080B2B0FBF2F04F
:103A7000ECE70120DEE70120704700BF1A100020AC
:103A80003A0E00201C1000203B0E0020ED2808B547
:103A900005D1FFF78BFF4042294BD87008BDEE28B7
:103AA00002D1FFF783FFF7E7EF2805D1FFF77EFF8D
:103AB0004042234B9870F1E7F02802D1FFF776FFE0
:103AC000F7E7F92804D1FFF7ADFF1D4B1871E5E7C3
:103AD000FA2803D1FFF7A6FF4042F6E7FB2805D1FD
:103AE000FFF7A0FF4042164B5871D7E7FC2802D1E0
:103AF000FFF798FFF7E700F10F03DBB2072B08D8B9
:103B00000F4A0123F13803FA00F05378184350703C
:103B1000C4E7FD2805D10B4A137843F00103137065
:103B2000BCE7FE2804D1074A137843F00203F6E706
:103B3000FF28B3D1034A137843F00403EFE700BF33
:103B4000141000201A100020364BED2893F90220A3
:103B50000AD193F9031000290CDA0021D97052B967
:103B6000314A0021117006E0EE280DD193F90310BF
:103B70000029F2DC72B11A795B7913435AB2002B37
:103B80004FD12A4B1A707047EF2806D1002AF1DA7C
:103B900000229A7093F90320E1E7F02802D1002A6D
:103BA000F6DCE7E7F92893F9041004D10029E1DDF8
:103BB00000211971DEE7FA2802D10029DADAF7E7E5
:103BC000FB2893F9051004D10029D3DA002159719B
:103BD000D0E7FC2802D10029F8DCCBE700F10F0187
:103BE000C9B2072907D8F13801218140587820EA65
:103BF00001005870BEE7FD2805D10D48017821F07D
:103C000001010170B6E7FE2804D10948017821F0CE
:103C10000201F6E7FF28ADD10548017821F0040143
:103C2000EFE77047141000201B1000201C1000202C
:103C30001A1000202A4B1B7813F0080F10B5294CDE
:103C400039D02948FFF7C2FB61782848FFF7BEFB4F
:103C50002748FFF7BBFB94F902102648FFF7B6FB95
:103C60002548FFF7B3FB94F903102248FFF7AEFB9A
:103C70002148FFF7ABFB94F904101E48FFF7A6FBA1
:103C80001D48FFF7A3FB94F905101A48FFF79EFBA8
:103C90001A48FFF79BFB1A4B1A481978FFF796FB57
:103CA0001948FFF793FB194B16481978FFF78EFB5D
:103CB0001748FFF78BFB04F0DDF8E378A278134395
:103CC00018BF144B227918BF18806379134318BFAB
:103CD000114BBDE8104018BF1880024802F02ABD01
:103CE000F80F00201410002056BA0008E1B20008B6
:103CF00079BA00087BBA00080DB700087EBA000840
:103D00001B10002081BA000884BA00081A10002095
:103D100086BA000810100020121000202DE9F0478C
:103D2000564C94F9028094F9037094F9046094F964
:103D3000055094F800A094F801900023A370E3705C
:103D40002371637158EA07030AD04D4B188804F0B9
:103D500096F84C490B783BB34B4A127890422DDCD5
:103D600056EA05030BD0494B188804F088F84849F7
:103D70000B78002B4ED0474A1278904254DCE27800
:103D8000A3781343227913436279134301D0FFF7D9
:103D900051FF84F800A084F8019084F80280E77055
:103DA00026716571BDE8F0873B4A127802EB82020A
:103DB000B0EB420FD4DD01330B7001E0FF2BFAD1E1
:103DC000B8F1000F08D0FFF7F1FDB8F1000FCCBF3C
:103DD0000123FF235843A0703FB1FFF7E7FD002FF9
:103DE000CCBF0123FF235843E07094F90220002A3E
:103DF000B6D094F90330002BB2D0B5214A43121249
:103E000001FB03F308BF01221B1208BF0123A270AC
:103E1000E370A5E7214A127802EB8202B0EB420F71
:103E2000ADDD01330B7001E0FF2BFAD13EB1FFF79E
:103E3000F9FD002ECCBF0123FF23584320713DB173
:103E4000FFF7F0FD002DCCBF0123FF235843607125
:103E500094F90420002A92D094F90530002B8ED0DA
:103E6000B5214A43121201FB03F308BF01221B12C2
:103E700008BF01232271637181E700BF1410002085
:103E8000101000201B100020350E00201210002002
:103E90001C100020390E0020340E0020380E0020A7
:103EA000054A002313609380044A1370044A137078
:103EB000044A1370704700BF141000201B1000202C
:103EC0001C1000201A10002008B500F069F940F617
:103ED000FF7008BD08B5074800F01AF9064800F061
:103EE00017F9064800F014F9BDE80840044800F04E
:103EF0000FB900BF00E0030800E8030800F0030862
:103F000000F80308B0F5805F2DE9F041884602D340
:103F10000020BDE8F081470007F1006606F578361D
:103F20004FF6FF7233889BB293424FEAA02404D12C
:103F3000304600F00FF980B2EBE7E402134D04F1D4
:103F4000006404F578344FF4006221462846FCF7FB
:103F50002DFA33789845DBD040F2FE70384005F5F5
:103F6000006605F80080204600F0D2F8297861F05C
:103F7000FF014B1C03D089B2204600F0EBF802355C
:103F8000B54204F10204F1D1D5E700BF5C1700206F
:103F900080B2400000F1006000F578300078704792
:103FA00080B2FFF7AFBF83B25B0003F1006303F59C
:103FB00078331A78431C9BB25B0003F1006303F56E
:103FC0007833187842EA0020704738B584B20D463D
:103FD0002046C9B2FFF796FF601C290A80B2BDE8EF
:103FE0003840FFF78FBFFFF7F0BF82B2F8B5571C1C
:103FF000BFB20C465300790003F1006301F1006188
:1040000003F5783301F57831961CB6B2187891F83B
:1040100000C0710001F1006101F57831D51CADB22D
:104020000B78690001F1006101F578311B04097812
:1040300043EA0C23034343EA0163A34213D0E1B2F2
:104040001046FFF75FFFC4F307213846FFF75AFF1A
:10405000C4F307413046FFF755FF210E2846BDE85F
:10406000F840FFF74FBFF8BD10B503460A440846B5
:10407000904200D110BD441CFFF78AFF03F8010BEA
:104080002046F5E770B504460D468618B44200D1C7
:1040900070BDA8B214F8011BFFF734FF0135F5E736
:1040A000FFF7F0BF0B4BDA68D0070CD4DA68510782
:1040B0000BD4DA68D2060AD4D86800F00100C0F147
:1040C0000500C0B2704701207047022070470320EE
:1040D000704700BF0020024073B50446FFF7E2FFBF
:1040E0000025FF2601280FD114B9062002B070BDAB
:1040F00001950196019B1BB9FFF7D4FF013CF1E745
:10410000019B013B0193F5E7002C08BF0620EDE77A
:1041100038B5054640F6FF70FFF7DEFF052815D1DC
:104120000B4C236943F0020323616561236943F06B
:104130004003236140F6FF70FFF7CEFF06281EBF45
:10414000236923F0020323613423E36038BD00BFF9
:1041500000200240104B00F178429A4270B50546AB
:104160000E4616D81F20FFF7B7FF052810D10B4CBD
:10417000236943F0010323611F202E80FFF7ACFF6A
:1041800006281EBF236923F0010323613423E36063
:1041900070BD0720FCE700BFFEFF070000200240C3
:1041A000044B1A69120641BF034A5A6002F1883271
:1041B0005A607047002002402301674530B585B042
:1041C00010F47F4F0190C0F30725C0F3074217D1C9
:1041D00009B1314B9A5C8DF80C208DF80D208DF8CB
:1041E0000E209DF80C30002063F307009DF80D3081
:1041F00063F30F209DF80E3063F3174005B030BD18
:104200009DF8044071B3244B995C04EB4400FF23F8
:104210004000B0FBF3F06FF05403434303EB44035F
:1042200003EB4303DBB215FB03F2C3F1FF036B4364
:1042300012121B12C5F1FF04C2F1FF02C3F1FF030A
:104240004C434A434B43C4F30724C2F30722C3F34E
:104250000723C9B2062819D8DFE800F00608110FB5
:104260001418060091B2D0E70A4619468DF80C10D2
:104270008DF80D208DF80E40B3E70B46114622460F
:104280001C46F3E71A460B462146F9E70B46214642
:1042900014461A46EAE700BFD4BC000884B00121E6
:1042A00004B0FFF78BBF012830B501D8C0B230BDD4
:1042B000B0F5F75F9DBF42090832D2B2FF22012458
:1042C000A3185910C3F34705C3F34F0313FB03F3BC
:1042D0009BB2834205D96A1ED2B29442F0D9601EC5
:1042E000E4E7FF2902D06C1CE4B2F6E70846DEE7FB
:1042F00010F040031ABFC243D2B2024610B502F01A
:104300000F0103B101310A4CC2F3011204EB420365
:104310005B7813FB01F114F8123003EB2113DBB2CD
:10432000020644BF5B42DBB283F0800010BD00BFD9
:10433000BCBC000884B0C0F3072301902C311248A4
:1043400010F81100E42110FB01F0C2EB10201C302A
:104350000028B8BF4042A3EBC00000B220EAE070E2
:1043600010FB03F000128DF80500019B0020DAB26B
:1043700062F30700C3F3072262F30F20C3F307437E
:1043800063F3174004B07047640C002084B0C0F39E
:10439000074301902C31124810F81100E42110FB62
:1043A00001F0C2EB10201C300028B8BF4042A3EB44
:1043B000C00000B220EAE07010FB03F000128DF89C
:1043C0000600019B0020DAB262F30700C3F3072264
:1043D00062F30F20C3F3074363F3174004B0704741
:1043E000640C002084B001908DF80420019B002013
:1043F000DAB262F30700C3F3072262F30F20C3F3BC
:10440000074363F3174004B07047000084B02C31B9
:104410000A4B019013F811309A1A8DF80420019B71
:104420000020DAB262F30700C3F3072262F30F2021
:10443000C3F3074363F3174004B07047640C0020D4
:1044400084B001900B4800EB4101002091F85930F5
:104450009A1A8DF80420019BDAB262F30700C3F3C5
:10446000072262F30F20C3F3074363F3174004B03E
:10447000704700BF640C002030B5134D85B02C315F
:1044800005EB410301905B78A3F1200464B2002C9A
:10449000BCBFC3F120035CB215F811309A1A224454
:1044A000C0B210448DF80400019B0020DAB262F320
:1044B0000700C3F3072262F30F20C3F3074363F33C
:1044C000174005B030BD00BF640C002084B003EB82
:1044D00043039DF81020019002EB53038DF8043044
:1044E000019B0020DAB262F30700C3F3072262F3F4
:1044F0000F20C3F3074363F3174004B070471FB5A1
:10450000019048B20028BCBF494248B25243C0F1B2
:10451000380010FB002080B21C46FFF7C4FE00EB01
:10452000400004448DF80440019B0020DAB262F39D
:104530000700C3F3072262F30F20C3F3074363F3BB
:10454000174004B010BD00001FB5124C01902C3371
:1045500004EB430014F813304078703B5943203883
:1045600002FB0012002A9DF80410B8BF7F3201EB55
:10457000E2128DF80420019B0020DAB262F30700FA
:10458000C3F3072262F30F20C3F3074363F317401B
:1045900004B010BD640C00201FB5124C01902C33E8
:1045A00004EB430014F813304078703B5943203833
:1045B00002FB0012002A9DF80410B8BF3F3201EB45
:1045C000A2128DF80420019B0020DAB262F30700EA
:1045D000C3F3072262F30F20C3F3074363F31740CB
:1045E00004B010BD640C002030B585B02C33164DDE
:1045F000019005EB430415F813506478A5F170039E
:104600005BB2002BBCBFC5F170035BB2203C5443CE
:10461000C3F1380301FB034212EB4202C0B248BFB0
:104620007F3200EBE2128DF80420019B0020DAB209
:1046300062F30700C3F3072262F30F20C3F30743BB
:1046400063F3174005B030BD640C002030B585B071
:104650000D460190C4B21046FFF74AFE2C35124BAE
:1046600013F815201044C2B2A2F180035BB2002BF4
:10467000BCBFC2F1800253B25B0003F0FE0303EB48
:10468000430304EB93138DF80430019B0020DAB24E
:1046900062F30700C3F3072262F30F20C3F307435B
:1046A00063F3174005B030BD640C002084B0114B9B
:1046B00001902C31C0B213F811108B1A5BB2002B91
:1046C000BCBF521A53B2DBB203EB430300EB5313EC
:1046D0008DF80430019B0020DAB262F30700C3F3C7
:1046E000072262F30F20C3F3074363F3174004B0BC
:1046F000704700BF640C002010B5044620B90029A3
:10470000ACBF0020802010BD80EAE072A2EBE07216
:1047100013B20029A6BFCB1A5B015B1A01FA82F221
:10472000B5BF520193FBF2F392FBF3F3C3F1200305
:10473000B8BFC3F160035BB2D8B2002CBCBF40422B
:10474000C0B2E0E730B585B0C0F30725EB1A0190A1
:104750001046DCB2FFF7D0FFC0EB801300EB830004
:104760002044C0B210FB05F000128DF80500019B3B
:104770000020DAB262F30700C3F3072262F30F20CE
:10478000C3F3074363F3174005B030BD30B585B0C0
:10479000C0F30745EB1A01901046DCB2FFF7ACFFFF
:1047A000C0EB801300EB83002044C0B210FB05F087
:1047B00000128DF80600019B0020DAB262F30700B8
:1047C000C3F3072262F30F20C3F3074363F31740D9
:1047D00005B030BD30B585B0C0F307259DF8204049
:1047E000019010461C1BFFF787FF2C44E4B2201AEF
:1047F000C0B210FB05F000128DF80500019B0020EF
:10480000DAB262F30700C3F3072262F30F20C3F3A7
:10481000074363F3174005B030BD30B585B0C0F332
:1048200007459DF82040019010461C1BFFF764FFD0
:104830002C44E4B2201AC0B210FB05F000128DF82F
:104840000600019B0020DAB262F30700C3F30722DF
:1048500062F30F20C3F3074363F3174005B030BD85
:104860001FB5019010461C46FFF746FF20448DF807
:104870000400019B0020DAB262F30700C3F30722B1
:1048800062F30F20C3F3074363F3174004B010BD76
:104890001FB59DF8184001901B1B1046DCB2FFF7B6
:1048A0002BFF201A8DF80400019B0020DAB262F37E
:1048B0000700C3F3072262F30F20C3F3074363F338
:1048C000174004B010BD84B004B0FFF7E7BC00008F
:1048D000024808221C21FFF7C7BB00BF5C1F002055
:1048E000024808221C21FFF7DBBB00BF5C1F002031
:1048F00008B50C4B1B78DB0702D50B48FEF766FDAD
:104900000A4B1A46052102F8011B094908888978D3
:1049100091704FF67F72A3F801009A80BDE80840BD
:10492000FFF7DEBFF80F002089BA00085C1F0020E7
:10493000F0AB000838B51F4C2378D80739D51E488E
:10494000FEF744FD2378D90733D51C4D1C48297840
:1049500001F00301FEF73AFD2378DA0729D529781B
:1049600018488908FEF732FD2378DB0721D56978DE
:104970001548FEF72BFD2378D8071AD5A9781348D8
:10498000FEF724FD2378D90713D5E9781048FEF700
:104990001DFD2378DA070CD529790E48FEF716FDA0
:1049A0002378DB0705D569790B48BDE83840FEF769
:1049B0000DBD38BDF80F0020ADBA00085C1F002007
:1049C000C7BA0008E6BA000803BB000821BB00080C
:1049D0003FBB00085DBB00087BBB0008014BDB68E8
:1049E000184700BFC4BC000810B4034C6468A44658
:1049F0005DF8044B604700BFC4BC00082DE9F04FD0
:104A0000DFF8DC900478344B99F804501B8804EBF1
:104A10008404A4006D0889B0E4B25D43C5F30723A4
:104A200004F11406F6B202932C4B0391622EB346A6
:104A3000804628BF4FF0620B03EB440703F58E7AE4
:104A4000E3B29B4506D8612E8CBF0020012009B03F
:104A5000BDE8F08F14F80A2098F801301A4238D0D7
:104A600097F8593097F85800203B9AB2703813FBEA
:104A700003F381B200FB003080B205910492FFF78E
:104A800012FC029A99F801C099F803E00599009286
:104A9000034699F80200049A039D4CEA002012B2E2
:104AA00009B240EA0E40A847C0F307238DF81C0066
:104AB000C0F307408DF81D308DF81E000798FFF7F2
:104AC00002FFC0F30743C2B2C0F307212046FFF73D
:104AD0008BFF02370134B3E7641F0020640C002011
:104AE0005C1F00200149FFF789BF00BFD5470008C0
:104AF0000149FFF783BF00BF1B4800080149FFF7CA
:104B00007DBF00BFCD4400080149FFF777BF00BF5C
:104B1000914800082DE9F04F2DED028B2F4BDFF867
:104B2000C49004781D8899F8043004EB84045B0871
:104B3000A400E4B25D43C5F3072304F11406F6B202
:104B400008EE103A85B0264B0191622EB34680469E
:104B500028BF4FF0620B03EB440703F58E7AE3B2F4
:104B60009B4508D8612E8CBF0020012005B0BDEC0C
:104B7000028BBDE8F08F14F80A2098F801301A4231
:104B800028D099F8023099F8010099F803C097F8F5
:104B9000592097F85810019D40EA0320203A7039B7
:104BA00018EE103A40EA0C40A847C0F307238DF8EE
:104BB0000C00C0F307408DF80D308DF80E000398FF
:104BC000FFF781FEC0F30743C2B2C0F307212046BE
:104BD000FFF70AFF02370134C1E700BF641F00205E
:104BE000640C00205C1F00200149FFF793BF00BF49
:104BF000454700080149FFF78DBF00BF8D470008FA
:104C00000149FFF787BF00BFFF4400080149FFF7D4
:104C100081BF00BF614800082DE9F74F0478DFF835
:104C2000A490274A99F80450DFF89CB004EB840460
:104C3000A400E4B2AB0804F1140815885FFA88F800
:104C4000B8F1620F03FB0555C24606460F4628BF62
:104C50004FF0620AC5F30725E1B28A4507D8B8F1DB
:104C6000610F8CBF0020012003B0BDE8F08F14F865
:104C70000B2073781A4220D099F8020099F801307D
:104C800043EA002399F803002A4643EA0040B84764
:104C9000C0F307238DF80400C0F307408DF80530FA
:104CA0008DF806000198FFF70EFEC0F30743C2B26D
:104CB000C0F307212046FFF797FE0134CCE700BF81
:104CC000641F00205C1F0020800D00200149FFF7B9
:104CD000A3BF00BF354300080149FFF79DBF00BFD8
:104CE0008D4300080149FFF797BF00BFE543000867
:104CF0000149FFF791BF00BF0D4400080149FFF7CC
:104D00008BBF00BF414400080149FFF785BF00BFCA
:104D1000794400080149FFF77FBF00BF4D460008F6
:104D20000149FFF779BF00BFAD4600082DE9F04FFC
:104D30002DED028BDFF8CCA00478304B9AF80450AC
:104D40001B8804EB8404A400AD085D43E4B2C5F302
:104D5000072504F1140887B05FFA88F8814605F149
:104D60004000B8F1620FC0B20391C34628BF4FF0B4
:104D7000620BFFF7BDFA803843B2284608EE103ABE
:104D8000FFF7B6FA803847B2E3B29B4509D8B8F1CD
:104D9000610F8CBF0020012007B0BDEC028BBDE885
:104DA000F08F174AA15C99F80120114224D09AF89B
:104DB00002209AF801009AF803C0039E009540EA89
:104DC000022018EE101A3A4640EA0C40B047C0F3F1
:104DD00007238DF81400C0F307408DF815308DF8C7
:104DE00016000598FFF76FFDC0F30743C2B2C0F38A
:104DF00007212046FFF7F8FD0134C5E7641F0020B6
:104E0000800D00205C1F00200149FFF78FBF00BF0D
:104E1000494500080149FFF789BF00BF99450008CF
:104E20000149FFF783BF00BFE94500082DE9F341C1
:104E300004781E4ADFF87880537804EB8404054632
:104E4000A4009078E4B243EA002304F11406D07879
:104E5000F6B2622E43EA0040374628BF6227FFF7CA
:104E600032FDC0F307238DF80530C0F307438DF8FA
:104E700004008DF80630E3B29F4206D8612E8CBF45
:104E80000020012002B0BDE8F08114F808206B7802
:104E90001A4208D09DF806309DF804209DF80510B0
:104EA0002046FFF7A1FD0134E5E700BF5C1F0020AD
:104EB000800D00202DE9F0430478DFF8B88004EB82
:104EC0008404A40085B0E4B2B8F8012098F8033057
:104ED000ADF8042004F114058DF80630EDB2622D12
:104EE0000646019898F801902F4628BF6227FFF7E1
:104EF000EAFCC0F307238DF8093098F804308DF8E8
:104F000008009944C0F307408DF804908DF80A001A
:104F10000198DFF86480FFF7D6FCC0F307238DF813
:104F20000D30C0F307438DF80C008DF80E30E3B25E
:104F30009F4206D8612D8CBF0020012005B0BDE83E
:104F4000F08314F808307278134211D0DB0743BFA6
:104F50009DF80E309DF80C209DF80D109DF80A303C
:104F60005CBF9DF808209DF809102046FFF73CFD26
:104F70000134DCE75C1F0020800D00202DE9F74F95
:104F80000478204FDFF8809097F80480B7F801206C
:104F9000FB78ADF8002004EB8404A400E4B204F133
:104FA0001405EDB2622DAA46064628BF4FF0620AEC
:104FB0008DF802304FEA9808A9F1C30BE3B29A4585
:104FC00006D8612D8CBF0020012003B0BDE8F08F12
:104FD00014F8092073781A4212D01BF814301A09F9
:104FE0007B7802FB08338DF800300098FFF76BFCEC
:104FF000C0F30743C2B2C0F307212046FFF7F4FC19
:105000000134DBE75C1F0020800D00202DE9F74F05
:105010000478214FDFF8849097F80480B7F80120D6
:10502000FB78ADF8002004EB8404A400E4B204F1A2
:105030001405EDB2622DAA46064628BF4FF0620A5B
:105040008DF802304FEA9808A9F1C40BE3B29A45F3
:1050500006D8612D8CBF0020012003B0BDE8F08F81
:1050600014F8092073781A4213D01BF8143008FB87
:1050700003F27B7803EB52138DF800300098FFF7B2
:1050800022FCC0F30743C2B2C0F307212046FFF75A
:10509000ABFC0134DAE700BF5C1F0020800D00206C
:1050A0002DE9F3412A4B0478B3F80120ADF8002034
:1050B00004EB8404274A93F803801B79A400064676
:1050C000E4B21088DB0804F114055843EDB2622DF8
:1050D000C0F307202F4628BF6227FFF709F9A0F188
:1050E00080035BB2002BBCBFC0F1800043B25B0009
:1050F000DBB213FB08F31B128DF802300098DFF8C7
:105100005880FFF7E0FBC0F307238DF80400C0F3DD
:1051100007408DF805308DF80600E3B29F4206D8AF
:10512000612D8CBF0020012002B0BDE8F08114F891
:10513000082073781A4208D09DF806309DF80420A4
:105140009DF805102046FFF74FFC0134E5E700BF4E
:105150005C1F0020641F0020800D002037B51A4B13
:105160000344054693F81C3119422AD0174B5C784A
:105170009A788DF80120DA788DF80220FBF732FA60
:105180004FF4B47204F1B403B3FBF2F102FB113338
:105190001B1B48BF033300F0030043F38F0303FBE3
:1051A00000438DF800300098FFF78DFBC0F30743F4
:1051B000C2B2C0F30721284603B0BDE83040FFF774
:1051C00013BC03B030BD00BF640C00205C1F002086
:1051D000F8B586780546EEB91B4B1C4A1B79128838
:1051E0001033FF2B28BFFF235343C3F30F230A229F
:1051F000B3FBF2F102FB11339BB24BB9FBF7F2F9AF
:105200006223697890FBF3F202FB1300FFF7A6FF1D
:105210003046F8BD047804EB8404A400E4B204F141
:105220001406F6B2622E374628BF6227A74204DC76
:10523000612E8CBF00260126EAE720466978FFF739
:105240008DFF0134F2E700BF5C1F0020641F0020C7
:1052500013B5124B0344044693F81C3119421BD07A
:10526000FBF7C0F98DF80000FBF7BCF90C4B60F0C0
:105270007F00DB788DF802308DF801000098FFF791
:1052800022FBC0F30743C2B2C0F30721204602B09D
:10529000BDE81040FFF7A8BB02B010BD640C0020B1
:1052A0005C1F0020F8B586780546F6B91B4B1C4AF2
:1052B0001B7912881033FF2B28BFFF235343C3F3FE
:1052C0000F230522B3FBF2F202EB82029B1A9BB280
:1052D0004BB9FBF787F96223697890FBF3F202FB85
:1052E0001300FFF7B5FF3046F8BD047804EB8404E3
:1052F000A400E4B204F11406F6B2622E374628BFC9
:105300006227A74204DC612E8CBF00260126EAE753
:1053100020466978FFF79CFF0134F2E75C1F00200C
:10532000641F00202DE9F3412C4B0478DA788DF8C6
:10533000022004EB84042A4AB3F8011093F8018098
:105340001B79ADF80010A4000646E4B21088DB0813
:1053500004F114055843EDB2622DC0F307202F4627
:1053600028BF6227FEF7C4FFA0F180035BB2002BC9
:10537000BCBFC0F1800043B25B0003F0FE0303EB4F
:10538000430308EB93138DF800300098DFF8548046
:10539000FEF784FFC0F307238DF80400C0F3074035
:1053A0008DF805308DF80600E3B29F4206D8612DD6
:1053B0008CBF0020012002B0BDE8F08114F8082065
:1053C00073781A4208D09DF806309DF804209DF8A5
:1053D00005102046FFF708FB0134E5E75C1F0020BD
:1053E000641F0020800D0020014B9B68184700BF00
:1053F000C4BC000801F0F8B97047704708B5FFF762
:10540000FBFFFFF7FAFF08BD704707B5017801EB16
:1054100081018900C9B26229A1F11400C0B228BF7C
:105420006221CDE90001FFF7EFFFDDE90001FCF7A4
:1054300063FE03B05DF804FB70B502F0FFFC794B2E
:105440001860794B1B787BB9784B1B7813F00304F9
:1054500000D09C08764E3378032B0ED8DFE813F08B
:1054600006000E00C600D2000024F3E7714B0022B4
:105470001A70714B18600123337070BD6F4B6B4A0B
:105480001B78A34225D16E491378097803F00303F2
:105490005B1A18BF0123674DAB7053796A789A4243
:1054A00005D00022114610466B70FFF79DFF1B2CA4
:1054B00018D8DFE804F010192F33373B3F43474B30
:1054C0004F53575B5F63676B6F73777B7F83878B0C
:1054D0008F930123DFE7A87848B1002211461046D8
:1054E000FFF782FF002002E05248FFF79FFC2B7875
:1054F00001332B70002875D102233370AB78002B59
:1055000070D1002C7CD0FFF779FFBDE8704049488E
:10551000FFF77BBF4748FFF7CDFCE8E74548FFF7BB
:105520002DFDE4E74348FFF771FDE0E74148FFF751
:10553000B7FDDCE73F48FFF7C9FBD8E73D48FFF779
:10554000CBFBD4E73B48FFF74FFBD0E73948FFF7E9
:1055500051FBCCE73748FFF7C5FAC8E73548FFF7F6
:10556000C7FAC4E73348FFF7BDFBC0E73148FFF790
:10557000BFFBBCE72F48FFF7C1FBB8E72D48FFF79B
:10558000C3FBB4E72B48FFF7B9FAB0E72948FFF7A8
:1055900037FBACE72748FFF739FBA8E72548FFF7BB
:1055A000B3FAA4E72348FFF72FFCA0E72148FFF751
:1055B00031FC9CE71F48FFF733FC98E71D48FFF7D5
:1055C00007FE94E71B48FFF76DFE90E71948FFF7C9
:1055D000A9FE8CE71748FFF79DFB88E71548FFF702
:1055E0009FFB84E7002C3FF448AF8CE7134B144A31
:1055F0001C700E4B1B78C3F301031370FFF7EEF919
:10560000032339E70F4D2B780BB1FFF769F90A4BEC
:10561000002418682C7002F039FC0F2888BF347001
:105620002BE700BF20100020251000205C1F002069
:10563000410E00203C0E0020641F00203F0E002081
:10564000400E00202410002008B5124B1B6898471C
:1056500002F026FA50B9104B1B78DA0702D50F4832
:10566000FDF7B4FE02F09EFAFFF742F9FFF730F9BA
:105670000B4B1B7813F0FC0F08D1074B1B78DB0793
:1056800002D50848FDF7A2FEFFF732F9BDE8084051
:10569000FFF750B9C4BC0008F80F002099BB000800
:1056A0005C1F0020CBBB000810B5044620B10022CF
:1056B00011461046FFF798FE014B1C7010BD00BF4D
:1056C000251000200E490B7803F0030282F001023E
:1056D00062F301030B700B4B002119700A490B7820
:1056E00003430B70094B1B78DB0707D50849094BAF
:1056F000002808BF19460848FDF768BE704700BF7C
:105700005C1F0020410E002024100020F80F002014
:1057100022BC000820BC000829BC00080120FFF7BB
:10572000D1BF0000124A137813F0030F1ED0C8B97E
:10573000012060F3870313700E4B002018700E4891
:1057400003780B4303700D4B1B78DB070ED50C4819
:1057500012780C4B9208002914BF014619460A48DA
:10576000FDF734BE1B2888BF1B20E2E7704700BF4F
:105770005C1F0020410E002024100020F80F0020A4
:1057800022BC000820BC000860BC00080121FFF713
:10579000C9BF0000054B1B789B0801331C2B014639
:1057A00034BF18460120FFF7BDBF00BF5C1F0020BB
:1057B0000120FFF7EFBF0000064B1B78C3F3850302
:1057C000013B13F0FF03014614BF18461B20FFF7EF
:1057D000A9BF00BF5C1F00200120FFF7EDBF000044
:1057E00037B51C460E4B15461A78920715D0C2B233
:1057F0000C485A709970DD700378234303700A4B8C
:105800001B78DB0709D5094800950B460849002C91
:1058100018BF01460748FDF7D9FD03B030BD00BFF2
:105820005C1F002024100020F80F002022BC00087C
:1058300020BC00087ABC0008034903464878CA78AF
:1058400089780830FFF7CCBF5C1F00200120FFF7EC
:10585000F3BF0000054910B44C78CA788978083C39
:105860000346A0B25DF8044BFFF7BABF5C1F0020EF
:105870000120FFF7EFBF000010B4074CA178E278D9
:105880001031FF2928BFFF210346C9B260785DF8B7
:10589000044BFFF7A5BF00BF5C1F00200120FFF7EE
:1058A000EBBF000010B4064CA178E278103921EA71
:1058B000E1710346C9B260785DF8044BFFF790BF11
:1058C0005C1F00200120FFF7EDBF000010B4074C63
:1058D000E278A1781032FF2A28BFFF220346D2B215
:1058E00060785DF8044BFFF77BBF00BF5C1F0020B2
:1058F0000120FFF7EBBF000010B4064CE278A1785E
:10590000103A22EAE2720346D2B260785DF8044BA4
:10591000FFF766BF5C1F00200120FFF7EDBF00000E
:105920000A4B0B4A187113780B431370094B1B7801
:10593000DB0709D5084B02460848002914BF014679
:1059400019460748FDF742BD704700BF5C1F0020A5
:1059500024100020F80F002020BC000822BC000802
:105960009DBC0008044B1B791033FF2B28BFFF237D
:105970000146D8B2FFF7D4BF5C1F00200120FFF71B
:10598000F1BF0000044B1B79103B23EAE37301468F
:10599000D8B2FFF7C5BF00BF5C1F00200120FFF792
:1059A000F1BF000008B50548002100F0ABF8BDE8E4
:1059B00008400348012100F0A5B800BF0D040048CD
:1059C0000E04004808B500F099FD0549054800F0AF
:1059D00033F8BDE808400249034800F02DB800BF85
:1059E0000D0800480D0400480E040048F8B517469D
:1059F00000220D461E461146042300F0B9FD044660
:105A000020B900F033FE00242046F8BD094865F0B7
:105A10005F0502210570477000F01EFE0028F0D1DE
:105A20009DF81810304600F017FE0028E9D100F06C
:105A30001DFEE9E728100020F0B521F00F07012531
:105A400001F00F0185B005FA01F4214606462A4609
:105A50003846A4B204F03FFA3C830DF10F039627B9
:105A600000952A46002130468DF80F70FFF7BEFFE3
:105A70000024E2B200950DF10F03042130460134F9
:105A80008DF80F70FFF7B2FFD82CF2D10022B123AE
:105A90008DF80F3000950DF10F0311463046FFF7DA
:105AA000A5FF05B0F0BD0000F0B50B4C04EB800580
:105AB00014F820400948AF78EE786D7804F00304BC
:105AC0004FF0D80C0CFB04004155C2558355044BD4
:105AD00001221A55F0BD00BF5CAD0008681F002010
