:020000040800F2
:1000000000040020D1020008D3020008D302000837
:10001000D3020008D3020008D3020008D30200086C
:10002000D3020008D3020008D30200084583000869
:10003000D3020008D3020008D3020008D30200084C
:10004000D3020008D3020008D3020008D30200083C
:10005000D3020008D3020008D3020008D30200082C
:10006000D3020008D3020008D30200080992000856
:100070001D9200083192000845920008599200082C
:100080006D92000881920008D3020008D302000894
:10009000D3020008D3020008D3020008D3020008EC
:1000A000D3020008D3020008D3020008D3020008DC
:1000B00065960008D3020008D3020008D3020008A6
:1000C000D3020008D3020008D3020008D3020008BC
:1000D000D3020008D3020008D3020008D3020008AC
:1000E000D3020008D3020008D3020008D30200089C
:1000F000D3020008D3020008D3020008D30200088C
:10010000D3020008D3020008D3020008D30200087B
:10011000D3020008D3020008D3020008D30200086B
:1001200095920008A9920008BD920008D19200089B
:10013000E5920008D3020008D3020008D3020008A9
:10014000D3020008D3020008D3020008D30200083B
:10015000D3020008D3020008D3020008D30200082B
:10016000D3020008D3020008D3020008AD960008AD
:10017000D3020008D3020008D3020008D30200080B
:10018000D3020008D3020008D3020008D3020008FB
:10019000D3020008D3020008D3020008D3020008EB
:0801A000351F0008111F0008C3
:1001B00072B6394880F30888384880F3098838488F
:1001C0004EF60851CEF20001086040F20000CCF279
:1001D00000004EF63471CEF200010860BFF34F8F7D
:1001E000BFF36F8F40F20000C0F2F0004EF688516E
:1001F000CEF200010860BFF34F8FBFF36F8F4FF057
:100200000000E1EE100A4EF63C71CEF200010860EB
:10021000062080F31488BFF36F8F07F0DFFD07F02F
:10022000A5FB4FF055301F491B4A91423CBF41F896
:10023000040BFAE71C49194A91423CBF41F8040BF0
:10024000FAE71A491A4A1B4B9A423EBF51F8040B6F
:1002500042F8040BF8E700201749184A91423CBFC6
:1002600041F8040BFAE707F0BDFD07F0B8FD144CA8
:10027000144DAC4203DA54F8041B8847F9E707F041
:1002800083FB114C114DAC4203DA54F8041B884730
:10029000F9E707F0A5BD000000040020000C0020D5
:1002A000000000080000002000040020E8AD000865
:1002B000000C0020CC0F0020D00F00207423002061
:1002C000A0010008A4010008A4010008A80100087A
:1002D0006EE700F000F8FEE72DE9F04F2DED108AF3
:1002E000C1F80CD0C3689D46BDEC108ABDE8F08F04
:1002F000002383F311882846A047002007F0A2FFBF
:10030000FEE707F05CFF00DFFEE7000053B94AB9E3
:10031000002908BF00281CBF4FF0FF314FF0FF300D
:1003200000F00CB8ADF1080C6DE904CE09F018FD31
:10033000DDF804E0DDE9022304B07047704700BF38
:10034000014B1868704700BF000C0020032A70B4EE
:1003500012D940EA0105AD0704460B4620D11946E3
:10036000204653F8045B54F8046BAE4218D1043AAB
:10037000032A20461946F2D8541E72B103780A782F
:100380009A4208BF241806D00CE010F8013F11F87B
:10039000012F934206D1A042F7D1002070BC7047D4
:1003A000541EEBE7981A70BC704700BF844641EAC0
:1003B000000313F003036DD1403A41D351F8043BDD
:1003C00040F8043B51F8043B40F8043B51F8043B2F
:1003D00040F8043B51F8043B40F8043B51F8043B1F
:1003E00040F8043B51F8043B40F8043B51F8043B0F
:1003F00040F8043B51F8043B40F8043B51F8043BFF
:1004000040F8043B51F8043B40F8043B51F8043BEE
:1004100040F8043B51F8043B40F8043B51F8043BDE
:1004200040F8043B51F8043B40F8043B51F8043BCE
:1004300040F8043B51F8043B40F8043B403ABDD23D
:10044000303211D351F8043B40F8043B51F8043BDF
:1004500040F8043B51F8043B40F8043B51F8043B9E
:1004600040F8043B103AEDD20C3205D351F8043B6E
:1004700040F8043B043AF9D2043208D0D2071CBF3A
:1004800011F8013B00F8013B01D30B880380604663
:10049000704700BF082A13D38B078DD010F00303D9
:1004A0008AD0C3F10403D21ADB071CBF11F8013B49
:1004B00000F8013B80D331F8023B20F8023B7BE798
:1004C000043AD9D3013A11F8013B00F8013BF9D2C3
:1004D0000B7803704B7843708B788370604670475D
:1004E000F0B4860746D0541E002A3CD0CAB2034658
:1004F00002E014F1FF3436D303F8012B9D07F8D145
:10050000032C29D9CDB245EA05250F2C45EA05452E
:1005100033D9A4F11006360903F1200707EB0617BB
:1005200003F1100242E9045542E902551032BA4281
:10053000F8D1721C14F00C0F03EB021204F00F063A
:1005400013D0331F23F003030433134442F8045B36
:100550009342FBD106F003042CB1C9B21C4403F84A
:10056000011B9C42FBD1F0BC704734461346002C63
:10057000F3D1F8E714460346C2E71A462646E0E7F9
:1005800038B5124B1C68A26B05461AB10023C2E9AC
:10059000045338BD182000F0C7F80246A06378B1B4
:1005A000012000210A4B1360C2E904010B23094812
:1005B000094993810023C2E90101C2E9045338BD0E
:1005C000064B0748422100F055F800BF000C002000
:1005D0000E33CDAB34126DE6ECDE050018AD00082D
:1005E00030AD000838B51A4B1C68A26B92B1146983
:1005F00018495369184801FB04F100FB0313A4FBDD
:100600000045611C1D4445F1000323F00040C2E990
:10061000041338BD182000F087F80246A06388B1A3
:1006200001200021C2E904010A480C4C0C4B0D4981
:100630000D4D146053600B24034695609481C2E90C
:10064000041338BD094B0A484E2100F013F800BFCF
:10065000000C00202DF451582D7F954C0E33CDAB5E
:1006600034126DE62E7F954CECDE050018AD0008C7
:1006700030AD000800B50A4C2668054685B01C461A
:10068000F06852B1074B0091CDE9013206492B4683
:10069000224600F021F800F0A7FD044B1A46F2E7CD
:1006A000000C002064AD000874AD000870AD0008B7
:1006B00008B513460022FFF7DDFF00BF0CB400B5FC
:1006C00083B004AB53F8042B019300F03BF903B063
:1006D0005DF804EB02B070470EB410B583B005AB03
:1006E000064C53F8042B01930146206800F02AF9C8
:1006F00003B0BDE8104003B0704700BF000C0020FD
:10070000704700BF704700BF704700BF704700BF11
:10071000704700BF704700BF01207047012070473D
:10072000704700BF704700BF024B0146186800F0D9
:1007300061B800BF000C0020024B0146186800F0B1
:1007400003B800BF000C002000293CD038B551F898
:10075000043C0C1F002BB8BFE418054601F098FAC2
:10076000234B1A682AB1A2420DD92168601882422F
:1007700023D0626028461C60BDE8384001F08EBA84
:10078000A34203D81A465368002BF9D111685018B8
:10079000A04219D024D821686018834206D0636033
:1007A00054602846BDE8384001F078BAD3E9000328
:1007B0000144636021605460F3E7D2E90002014420
:1007C00062602160D6E77047206801445018834278
:1007D0001160E6D1D3E90003014453601160E0E702
:1007E0000C232B602846BDE8384001F057BA00BF03
:1007F000D00F0020F8B5CD1C25F0030508350C2DD1
:1008000038BF0C25002D064633DBA94231D82A4FCC
:1008100001F03EFA3A6852B113685B1B04D43FE022
:1008200023685B1B29D522465468002CF8D17968CF
:1008300000293BD02946304609F06CFA431C28D0E9
:10084000C41C24F00304A04205D0211A304609F04C
:1008500061FA01301DD02560304601F01FFA04F125
:100860000B0020F00700231DC21A01D01B1AA35051
:10087000F8BD0C2232600020F8BD0B2B05D8A24237
:10088000636811D05360E7E7144623601C44256079
:10089000E2E70C233046336001F000FA0020F8BD97
:1008A0000B2BF1D8536814463B60D5E7304609F06E
:1008B00031FA7860BEE700BFD00F00209368013B9B
:1008C000002B936011DA10B49469A34209DB0A2962
:1008D00007D01368581C1060197008465DF8044B67
:1008E00070475DF8044B00F09FBB1368581C106004
:1008F00019700846704700BF9BB1F8B513440F4606
:1009000006465D1E541E01E0AC4208D03A4614F87B
:10091000011F3046FFF7D2FF431CF5D1F8BD002080
:10092000F8BD0020704700BF936810B5144613B996
:100930005360184610BD00F0A3FE0023C4E9013344
:1009400010BD00BF2DE9F04F9FB08B4690461C466E
:10095000039018B18369002B00F0C580B34B9B4511
:1009600000F0C780B24B9B4500F0C780B14B9B4560
:1009700004BF039BD3F80CB0DBF86430BBF80C2049
:10098000DB0702D4970540F14381160740F1278128
:10099000DBF81030002B00F0228130238DF832304C
:1009A00098F800300594002120220B91A24E8DF87A
:1009B00031200127002B00F08580252B00F00D81D0
:1009C000454603E0252B00F09C8025466B786C1C87
:1009D000002BF7D1B4EB080A74D04246534659466F
:1009E0000398FFF789FF01306CD00B9B6A78534462
:1009F0000B93002A66D000234FF0FF320134069398
:100A0000CDE908338DF85B301C93079205E0069A18
:100A100007FA03F313432C4606932546052215F8DF
:100A2000011B304601F07CF8AA46831B0028EED15A
:100A3000069BD80644BF20228DF85B201907217839
:100A400044BF2B228DF85B202A295FD1059A1168BB
:100A5000043200290592C0F2958009916178A51CA5
:100A60002E296CD0754C0322204601F059F800283D
:100A70007ED0001B069B402404FA00F0034306933B
:100A800005F1010829786E488DF83010062201F032
:100A900047F800287CD06B4B002B6CD005AB009343
:100AA0005A46694B039806A9AFF300808146B9F115
:100AB000FF3F07D00B9B4B440B9398F80030002B63
:100AC0007FF47BAFDBF8643013F0010FBBF80C3020
:100AD00002D19A0540F1A3805B0600F193800B9848
:100AE0001FB0BDE8F08F00F0B3FC504B9B457FF486
:100AF00039AF039BD3F804B03EE7039BD3F808B0AB
:100B00003AE7B4EB080A3FF476AF66E7A1F13002AA
:100B1000092A88BFA246A3D8099B01E02C460135CB
:100B2000297803EB830302EB4303A1F13002092A86
:100B3000AA46F3D92E2904F10205099392D19AF815
:100B400001102A292ED1059B9AF802101A680792E3
:100B50000433002A05930AF103050AF1020337DB87
:100B6000364C032220469A4600F0DAFF002880D156
:100B7000A846554686E7059B073323F0070308334D
:100B8000059397E7494243F002030991069365E70D
:100B900005AB00935A462C4B039806A900F0F8F8D1
:100BA000814684E7A1F130020023092A079301D985
:100BB0002BE05546697803EB830302EB4303A1F175
:100BC0003002092A05F1010AF3D90235079349E7F2
:100BD0004FF0FF329A46079244E744460BE75946E6
:100BE000039800F081FA00283FF4D7AEDBF86430B8
:100BF000DD0707D4BBF80C309C0503D4DBF85800A4
:100C0000FFF790FD4FF0FF306AE7AA46013529E76C
:100C1000DBF85800FFF77EFDBBF80C20B5E6DBF8EB
:100C20005800FFF77FFDBBF80C3055E760A10008C6
:100C300040A1000820A10008A4AD0008ACAD000848
:100C4000B0AD000800000000F908000810B4044C22
:100C500013460A46014620685DF8044BFFF772BE52
:100C6000000C00202DE9F0470C4691460A6989687E
:100C7000DDF820808A42B8BF0A46C9F8002094F8FF
:100C8000431006461F4611B10132C9F800202368FF
:100C900099065CD5D9F800200232C9F800202368F3
:100CA00013F0060F19461DD1E1688A1A002AD8BF31
:100CB000194617DD04F1190A002505E0E368D9F8A3
:100CC00000209B1AAB420CDD0123524639463046C8
:100CD000C047013005F10105F0D14FF0FF30BDE80C
:100CE000F087216894F84330003318BF01238A0647
:100CF0000AD5E1185A1C302081F84300224494F8A8
:100D0000451082F84310023304F14302394630465D
:100D1000C0470130E1D02368A268216903F00603CF
:100D2000042B1DD08A4226DD4FF00009521A91444F
:100D30001A34002501E04D451DDA012322463946CB
:100D40003046C047013005F10105F4D1C5E713F085
:100D5000060F13D094F84330003318BF0123D3E7B4
:100D6000D9F80000E3688A42A3EB000323EAE379A1
:100D7000DCDC002BDCDC0020BDE8F087E168D9F882
:100D800000208A1A002AD8BF194693DCAAE700BFC0
:100D90002DE9F0430C46097E85B06E2906461746BC
:100DA0000C98984604F1430E6DD039D9732900F0A0
:100DB000F68044D9752900F00481782940F011812A
:100DC00078232268DFF858C284F845300168150698
:100DD00051F8043B016040F1A180D10744BF42F0CB
:100DE00020022260002B00F093801022002184F862
:100DF00043106068A0600028C0F2C880216821F01C
:100E000004012160002B40F0A380002840F0C08046
:100E10007546082A00F0AC80AEEB0503236141E083
:100E2000632900F0E5801AD8002938D0582940F00D
:100E3000D88084F845102268DFF8E8C1C6E76F293A
:100E400000F0BF80702940F0CC802268DFF8D0C16C
:100E500042F020027823226084F84530B6E7642906
:100E600002D0692940F0BD8022680368110603F1B1
:100E7000040557D5196805600B46002959DBDFF8D2
:100E8000A4C10A22B5E70368226861691D1D0560D7
:100E900015061B6802D4500600F1BD8019600023BE
:100EA00075462361CDF800803B4603AA21463046B3
:100EB000FFF7D8FE013020D02A4623693946304654
:100EC000C047013019D022680398E368920719D50A
:100ED0001A1A002A16DD04F11909002504E0E36856
:100EE00003981A1AAA420DDD01234A4639463046B4
:100EF000C047013005F10105F1D14FF0FF3005B0D9
:100F0000BDE8F0839842B8BF184605B0BDE8F0834D
:100F1000226822F020022260102267E7500648BFB4
:100F20009BB25AE75106A5D5B3F9003005601946C2
:100F3000A3E76168A1602D200029C3F1000384F8B4
:100F4000430002DB22F004022260DFF8D8C00A224C
:100F5000754600E00B46B3FBF2F102FB1130934201
:100F60001CF8000005F8010DF4D2082A7FF454AFF4
:100F70002368DB077FF550AF626823699A423FF729
:100F80004BAF302305F8013C013D45E7002BDFD195
:100F90009CF8003084F8423004F1420539E70368D8
:100FA0006268191D01601D680021284600F0B8FD27
:100FB000002832D0401B60602061002384F8433059
:100FC00070E72268036812F0800F03F104051AD05D
:100FD0001B6805606F290CBF08220A22DFF844C095
:100FE00004E7012384F84210236104F14205E4E799
:100FF00003681A68191D0123016004F1420584F891
:1010000042202361D9E712F0400F0DBF1B68056035
:101010001B880560DEE7198041E76068CCE700BF08
:10102000CCAD0008B8AD0008F8B50D46144606462C
:1010300008B1836943B3254B9C422AD0244B9C4280
:1010400029D0244B9C4208BFF468A389A269A260FE
:101050001A0722D5236903B322686169D31AEDB256
:1010600099422F4629DD0133A168501C0139A16046
:101070002060157062699A4216D0A389DB0701D5FA
:101080000A2D11D03846F8BD00F0E2F90F4B9C4212
:10109000D4D17468D9E7B468D7E72146304600F068
:1010A00023F838B92369D7E72146304600F03AF9EA
:1010B0000028E7D04FF0FF37E4E72146304600F044
:1010C00031F90028F6D122680123CDE760A100089C
:1010D00040A1000820A10008024B0A4601461868FA
:1010E000FFF7A2BF000C00203B4B70B51D68064601
:1010F0000C460DB1AB69DBB1384B9C421ED0384B6E
:101100009C424AD0374B9C4208BFEC68B4F90C2093
:1011100093B2190718D5206908B313F001022CD037
:10112000636900225B42A361A26060B3002070BDCE
:10113000284600F08DF9294B9C42E0D16C68B4F947
:101140000C2093B21907E6D4DD063CD5580726D407
:10115000206942F00803A3819BB20028DDD103F48B
:101160002072B2F5007FD8D03046214600F08AFCCC
:10117000A389206913F00102D2D1990758BF62698F
:10118000A2600028D2D1B4F90C301A06CFD543F0B2
:101190004003A3814FF0FF3070BDAC68B6E7616BD0
:1011A00051B104F14403994204D03046FFF7CCFA20
:1011B000B4F90C200023636300232069636022F0EC
:1011C00024022060C5E742F04002092333604FF05B
:1011D000FF30A28170BD00BF000C002060A100089C
:1011E00040A1000820A1000808B5062000F008FE74
:1011F000012008F0B4FD00BF8B891A072DE9F041EA
:101200000C46804641D44A68002A59DDE66A002E21
:1012100053D00022D8F80050216AC8F8002013F4F7
:10122000805251D101234046B047431C5FD0A3896F
:10123000E66A216A5F0705D56268636B801A0BB1A5
:10124000236CC01A024600234046B047461C45D1D5
:10125000D8F80030B4F90C20002B55D01D2B01D04C
:10126000162B5AD123690022C4E90032616BC8F8F9
:10127000005011B304F14403994202D04046FFF7F5
:1012800063FA00206063BDE8F0810E69AEB10D68BD
:101290000E6099070CBF63690023AD1BA3600AE0D1
:1012A0002B463246A76A216A4046B8470028A5EB7C
:1012B000000506440ADD002DF2DC0020BDE8F081C7
:1012C0000A6C002AA2DCF8E7606DB3E7A38943F05B
:1012D0004003A3814FF0FF30BDE8F0812269A3896C
:1012E000226000226260DA04C0D56065BEE7D8F8EB
:1012F0000030002B9BD01D2B0CD0162B0AD0A389BD
:1013000043F04003A381D9E72169C4E90013D30462
:10131000ACD5EAE7C8F80050CFE742F04002A2811E
:10132000CCE700BF38B50B691BB30C46054608B1C6
:1013300083691BB3184B9C421ED0184B9C4220D093
:10134000174B9C4208BFEC68B4F90C308BB1626E4D
:10135000D00701D4990516D528462146FFF74CFF42
:10136000636EDA07054602D4A3899B050FD528468C
:1013700038BD0025284638BD6C68E5E700F068F800
:10138000D8E7AC68E0E7A06DFFF7C4F9E4E7A06D2B
:10139000FFF7C8F9EBE700BF60A1000840A1000813
:1013A00020A1000820B1054B01461868FFF7BABF1D
:1013B000034B0449186800F00DBB00BF000C00206F
:1013C0001CA1000825130008014900F003BB00BF61
:1013D0002513000808B5436EDA0702D483899B05FC
:1013E00001D5002008BD806DFFF794F9002008BDED
:1013F00008B5436EDA0702D483899B0501D5002026
:1014000008BD806DFFF78EF9002008BD70B54A1E3B
:10141000682505FB02F50E4605F17401FFF7EAF9B0
:10142000044640B100210C30666005F1680221607D
:10143000A060FFF755F8204670BD00BF024B03497E
:10144000186800F0C7BA00BF1CA1000825130008E7
:101450002DE9F84F05463A48FFF75CF9AB69002BD8
:1014600068D1384A2B6512683749A962AA42C5E992
:10147000123304BF0123AB61284600F073F86860A3
:10148000284600F06FF8A860284600F06BF86E68F8
:10149000E86000240423F3607466C6E90044B46085
:1014A000C6E90444B461214606F15C000822FFF756
:1014B00017F8DFF8A0B0AF68DFF89CA0DFF89C90C9
:1014C000DFF89C80214BC6F83080C6E9086BC6E97E
:1014D0000AA92146FB607C66C7E90044BC60C7E9F5
:1014E0000444BC6107F15C000822FEF7F9FFEE68D6
:1014F000174BC7F83080C7E9087BC7E90AA921461E
:10150000F3607466C6E90044B460C6E90444B4619B
:1015100006F15C000822FEF7E3FF0123C6E9086B31
:10152000C6E90AA9C6F830800548AB61BDE8F84FA6
:10153000FFF7F8B80248BDE8F84FFFF7F3B800BF6F
:10154000582300201CA10008C9130008090001004D
:1015500012000200711E0008991E0008D91E000822
:10156000F91E000870B506462448FFF7D3F8244B4F
:101570001D68AB697BB34835D5E90134013B05D51E
:1015800025E0013B5A1C04F1680420D0B4F90C207A
:10159000002AF6D100251B4BE36004F15800656674
:1015A000FFF7B0F81548FFF7BDF82560C4E901550D
:1015B000C4E90455A5612946082204F15C00FEF740
:1015C0008FFFC4E90D55C4E91255204670BD2C6843
:1015D0002CB12546D0E72846FFF73AFFCBE7042198
:1015E0003046FFF713FF044628600028F1D1034876
:1015F000FFF798F80C233360E7E700BF6C23002067
:101600001CA100080100FFFF0148FFF783B800BFDD
:101610006C2300200148FFF785B800BF6C23002031
:101620000148FFF777B800BF582300200148FFF7B3
:1016300079B800BF5823002008B50548FFF76AF8BD
:10164000044B05491868BDE8084000F09DB900BF8B
:101650006C230020000C0020D513000808B5054BB2
:101660000549186800F090F90448BDE80840FFF704
:1016700059B800BF000C0020F11300086C230020B3
:101680009368002B00F002812DE9F04FB1F90C3086
:101690009BB20C46190783B08246904635D5226925
:1016A0009AB313F00202D8F800603DD00027D4F8B6
:1016B00028B0D4F820C0DFF8CC923D464D452B46EB
:1016C0003A4628BF4B4661465046D5B1D847002818
:1016D00040F3D280D8F808301B1A07442D1AC8F8F6
:1016E0000830002B00F0B780D4F820C0D4F828B020
:1016F0004D452B463A4628BF4B4661465046002D85
:10170000E4D1D6E900750836D8E721465046FFF700
:10171000EBFC002840F03081B4F90C30D8F80060C0
:101720009BB213F00202C1D113F0010940F0B08066
:10173000A76820684D46002D54D09A0540F1BC8022
:10174000AF42BB4600F2E78013F4906F2FD0D4E98C
:10175000041707EB4707A0EB010B07EBD777681CD3
:101760007F105844B8423A4684BF07463A465B0564
:1017700040F1E98011465046FFF73CF8002800F0A0
:10178000F5805A4621690190FEF710FEA289019B5F
:1017900022F4906242F08002A281A7EB0B0203EBDD
:1017A0000B00676123612060A2602F46AB465A465A
:1017B000494600F005FAA2682368D21B5B442F4615
:1017C000A26023600025D8F80830DB1BB944C8F8B4
:1017D0000830002B3FD0B4F90C30A76820689BB2CA
:1017E000002DAAD1D6E900950836A4E70BF108032D
:1017F00053E902679B460833002FF9D03A460A2185
:10180000304600F08DF9002853D00130A0EB0609D6
:101810004B46D4E904122068BB4228BF3B468842AD
:1018200003D9A5681544AB4219DC9A427DDC134606
:10183000A56A216A32465046A847051E1CDDB9EB51
:1018400005096BD00120D8F808305B1B2E447F1BA4
:10185000C8F8083013BB002003B0BDE8F08F314654
:101860002A4600F0ADF923682B44236021465046F8
:10187000FFF758FD0028E2D0B4F90C3043F04003E4
:101880004FF0FF30A38103B0BDE8F08F0020704718
:1018900033469146104617464E469B46002FA5D02C
:1018A0000028B5D13A460A21304600F039F900281F
:1018B000ABD17B1C9946ACE72369834215D36169A0
:1018C000A94212D82E4BA76A9D4294BF2B466FF0B7
:1018D00000434A4693FBF1F3504601FB03F3216AB0
:1018E000B847071EC8DDED1B6DE7AF4228BF2F4686
:1018F0003A46494600F064F9A3682268DB1B3A4483
:10190000A3602260002BEED121465046FFF70AFD6E
:101910000028E8D0B0E72F46AB4648E721465046BE
:10192000FFF700FD00288ED0A6E71A463146019346
:1019300000F046F9019BA1682268C91A1A44A16007
:1019400022601D467BE7504600F0AEF903460028B2
:101950007FF423AF21695046FEF7F6FEB4F90C3050
:101960000C2223F08003CAF8002087E70C23CAF872
:101970000030B4F90C3081E74FF0FF306CE700BF66
:10198000FEFFFF7F00FCFF7F2DE9F04110F14807CB
:101990001BD088460026D7E90154013D0FD4A38906
:1019A000012B05F1FF3506D9B4F90E30013320467D
:1019B00001D0C04706436B1C04F16804EFD13F68B7
:1019C000002FE8D13046BDE8F0813E463046BDE804
:1019D000F08100BF2DE9F84310F148071FD0884679
:1019E00006464FF00009D7E90154013D11D4A389FF
:1019F000012B05F1FF3508D9B4F90E30013321462A
:101A0000304602D0C04749EA00096B1C04F1680463
:101A1000EDD13F68002FE6D14846BDE8F883B946CE
:101A20004846BDE8F88300BF70B50C46B1F90E100A
:101A3000002996B016461D4613DB6A4608F077F972
:101A400000280EDB019A02F47042A2F50052B2FAAD
:101A500082F252094FF4806300202A60336016B08E
:101A600070BDA38900221B062A6004D540230020F4
:101A7000336016B070BD4FF480630020336016B041
:101A800070BD00BF8A8992070B4606D501F1470257
:101A900001211A60C3E90421704770B582B001AB1F
:101AA0006A460C460646FFF7BFFF009905463046DA
:101AB000FEF7A0FEB4F90C3070B11649B162019A7C
:101AC0000099206043F08003A381C4E904018AB92E
:101AD0002B43A38102B070BD9A05FBD423F003030E
:101AE00004F1470243F002030121A3812260C4E90B
:101AF0000421EFE73046B4F90E1008F024F910B9CC
:101B0000B4F90C30E4E7A38923F0030343F00103A5
:101B10001BB2DDE7C9130008000000000000000050
:101B200001F0FF01102A2BDB10F0070F08D010F88E
:101B3000013B013A8B422DD010F0070F42B3F6D192
:101B4000F0B441EA012141EA014122F007047FF0AB
:101B500000070023F0E80256083C85EA010586EA02
:101B6000010685FA47F5A3FA87F586FA47F6A5FA3E
:101B700087F68EB9EED1F0BC01F0FF0102F007024A
:101B800032B110F8013B013A83EA010313B1F8D1F5
:101B90000020704701387047002D06BF35460338D6
:101BA000073815F0010F07D1013015F4807F02BF0F
:101BB000013015F4C03F0130F0BC0138704700BF60
:101BC0008842F0B40DD98B1883420AD9841832B1F7
:101BD000224613F8014D02F8014D9942F9D1F0BCAB
:101BE00070470F2A0ED80346541E002AF7D001343E
:101BF0000C44013B11F8012B03F8012FA142F9D14C
:101C0000F0BC704740EA01039B073BD1A2F11007EB
:101C10003F0901F1200606EB071601F1100300F160
:101C2000100453F8105C44F8105C53F80C5C44F852
:101C30000C5C53F8085C44F8085C53F8045C44F806
:101C4000045C1033B34204F11004EAD17B1C1B0185
:101C500012F00C0F194402F00F05034415D0043D97
:101C6000AD0803EB850C1C1F0E4656F8047B44F8A8
:101C7000047F6445F9D10135AD002B44294402F0BD
:101C80000302B1E7541E0346B1E72A46ACE700BFA2
:101C90000148FEF73FBD00BF5C2300200148FEF76E
:101CA00041BD00BF5C23002009B3F8B51446CAB19A
:101CB00006460D4600F024F9A04202D32F463846CE
:101CC000F8BD21463046FEF795FD07460028F6D0C0
:101CD00022462946FEF76AFB30462946FEF734FDC8
:101CE0003846F8BD2746FEF72FFD3846F8BD1146A9
:101CF000FEF780BD10B580210446FEF77BFD6064D1
:101D000040B1031F00227C3043F8042F8342FBD1F3
:101D1000002010BD4FF0FF3010BD00BF436C0BB171
:101D200000207047E6E700BF1F2970B5054608D8B8
:101D3000436C16460C464BB153F8240043F824601C
:101D400070BD162202604FF0FF3070BDFFF7D2FF6A
:101D500008B96B6CF0E74FF0FF3070BD1F2938B544
:101D600021D8426C05460C466AB152F8213053B175
:101D7000012B16D0591C10D00025204642F82450C3
:101D80009847284638BD284600F070F8224601469C
:101D90002846BDE8384000F055B8162303600120FE
:101DA00038BD002038BD162303604FF0FF3038BD2A
:101DB0001F2921D838B5436C05460C4683B153F82A
:101DC000242003EB84034AB1511C10D0012A0CD00B
:101DD000002520461D609047284638BD012038BDAB
:101DE000FFF788FF28B96B6CE9E7032038BD0220B4
:101DF00038BD4FF0FF3038BD4FF0FF30704700BFA7
:101E0000024B01461868FFF7A9BF00BF000C002075
:101E1000024B0A4601461868FFF786BF000C0020F7
:101E2000034B1868436C0BB10020704762E700BF9A
:101E3000000C0020024B01461868FFF7B9BF00BF35
:101E4000000C002038B50B46074C054611461846D5
:101E50000023236007F079FF431C00D038BD2368BE
:101E6000002BFBD02B6038BD7023002007F075BF1E
:101E700010B50C46B1F90E1007F041FF002803DB46
:101E8000636D0344636510BDA38923F48053A3816C
:101E900010BD00BF002070472DE9F0411646B1F992
:101EA0000C201F46D3050C460546B1F90E1009D487
:101EB00022F48052A2813B4632462846BDE8F041DA
:101EC00007F024BF0022022307F01EFFB4F90C2004
:101ED000B4F90E10ECE700BF10B50C46B1F90E10C6
:101EE00007F012FFA389421C0EBF23F4805343F472
:101EF00080536065A38110BDB1F90E1007F008BFD3
:101F000051F8043C181F002BBCBF0B58C018704779
:101F100010B5054C237833B9044B13B10448AFF323
:101F200000800123237010BDD80F002000000000A6
:101F3000E8AD000808B5034B1BB103490348AFF3F4
:101F4000008008BD00000000DC0F0020E8AD0008A4
:101F500005F0B6B9064A138830B18B2B06D8013389
:101F600013807047013BFBE7002BFBD1704700BF9C
:101F70002C0E002045F66753984210B50BD845F655
:101F80006053984209D8E52851D045F6C24398429B
:101F900059D0E1284BD0012010BDA0F5BA406238DD
:101FA0008B78052831D8DFE800F003091D25424869
:101FB000002BF0D02C4800F0A5FBECE76BB12B4ACE
:101FC000137883F00103137023B145F6064003F044
:101FD0004BFAE0E745F60F40F9E745F6635000F0AD
:101FE000B5F9D8E71BB10120FFF7B4FFD3E745F6F9
:101FF0006450F4E733B11E4A1388002BCBD0013B69
:102000001380C8E745F66550E9E71A4C2BB11A4B27
:102010001B7843B92378013323702378022BBAD17C
:1020200000232370B7E7A82004F00EF8F5E78A78BC
:10203000114B02B101221A70ADE7002BABD0A620E4
:1020400004F002F8A7E78B78002BA4D00B4C237880
:1020500033B902F07FFC01232370FFF779FF9AE781
:1020600002F082FC0023F7E708A30008F60F002027
:102070002C0E0020F70F0020F50F0020F40F002099
:102080007047000008B5134B1B78012B12D0022BB0
:102090001DD033B9104B1B7829B13BB1A92003F0F7
:1020A000D3FF012008BD1BB1AA20F8E7FA20F6E70C
:1020B000F920F4E7084B1B7829B1002BEED1AB20B7
:1020C00000F05AF9EDE7002BEED1AC20F8E700293B
:1020D000E4D1E9E7F70F0020F50F002070B503F019
:1020E00079FD41070BD500231946FF22432001F05B
:1020F000ADFD0023FF221946462001F0A7FD03F0A5
:1021000069FDC2070BD5FF2319460022492001F0C3
:102110009DFDFF23002219464C2001F097FD03F09E
:1021200059FD830711D500231A46FF21502001F0E5
:102130008DFD00231A46FF21532001F087FD002367
:102140001A46FF21572001F081FD484B1B782BB127
:1021500000231A46FF210B2001F078FD444B18782C
:1021600000F0D3FA022850D003286CD001287BD18C
:1021700000231A46FF21472001F068FD00231A467C
:10218000FF214A2001F062FD00231A46FF214D2065
:1021900001F05CFD374D002337201A46FF2101F086
:1021A00055FD28880A2808D80023334C1A46FF21F9
:1021B000205CBDE8704001F049BD8B2814D82E4E3C
:1021C00000230A241A46FF21B0FBF4F0305C01F032
:1021D0003DFD2B88B3FBF4F004FB103398B20023D1
:1021E000264C1A46FF21E3E700231A46FF21392037
:1021F00001F02CFD00231A46FF213E2001F026FDB0
:1022000000231A46FF214E20D3E71D4D0C24FF2347
:1022100015F8010B00221946013C01F017FD14F0DE
:10222000FF04F4D1FF23194622464D2001F00EFD94
:10223000FF2319462246512001F008FDFF232246C4
:1022400019465420B5E700231946FF22542001F017
:10225000FDFC00231946FF22582001F0F7FC002363
:10226000FF2219465C20A4E770BD00BFF60F0020D6
:10227000AD1400202C0E00200BA3000825A300089D
:1022800019A30008012002F02DBB002002F02ABB98
:1022900008B503F09FFCC30702D5532003F0D4FE1A
:1022A00005F00EF8BDE80840A922A421002002F0A4
:1022B000CDB9A0F58073B3F5F85F10B526D210F450
:1022C000805F00F4807300F4007400F4806100F417
:1022D00000620DD0002B0CBF002010200CB140F08C
:1022E000200009B140F040000AB140F0800010BD6C
:1022F000181E18BF01200CB140F0020009B140F0D7
:102300000400002AF3D040F00800F0E70020EEE7D8
:1023100010B50C46FFF7CDFF2346BDE81040184727
:10232000A0F1E003072B10B5044600D940B90549D8
:102330002046FFF7EDFFE0B2BDE8104003F096BD88
:102340000149F6E7556000088164000810B50446AD
:10235000C0B203F00BFEA4F1E003072B00D92CB9A7
:1023600003492046BDE81040FFF7D2BF0149F8E716
:10237000676000089364000810B50446FFF7D0FFBB
:102380004FF47A7005F063FF2046BDE81040FFF778
:10239000DDBF0120704708B5FFF7ECFD08BD7047B1
:1023A00008B5FFF7FCFF08BD13B502AB03E9030056
:1023B0000F4B1B78B3B99DF8023073B16AB104F0CA
:1023C0001DFC04460146009804F0D8FB0099204605
:1023D00002B0BDE8104002F00ABF009804F0F0FB24
:1023E0000446F3E7009804F009FC0099F0E700BF09
:1023F0006014002003460A4600689988FFF7D4BF9E
:102400000120704710B500210446FFF7F3FF214675
:10241000FFF7C6FF10BD10B5012404FA01F104FA5C
:1024200002F20A43D1B202408A4204FA03F306BF21
:102430001843C0B2984310BD08B513460A4601467A
:1024400003480078FFF7E7FFBDE8084004F042BB0F
:10245000AD14002008B500F059FB00F070F902F04F
:1024600025FABDE8084000F072BB08B503F0AEFAEB
:10247000BDE8084000F06FBB704708B504F02CF8C9
:10248000FFF7FAFF46F2A81005F0E1FEBDE80840AC
:1024900004F028BF38B501210546FFF7ABFF2946F8
:1024A000044603F019FA2946204603F041F908B919
:1024B000002038BD2946204602F052FD0028F7D002
:1024C00029462046FFF767FF0028F1D0294620461D
:1024D00003F038FA0028EBD02946204602F06AFFC4
:1024E0000028E5D02946204602F0BEFF0028DFD0B4
:1024F0002946204603F092F80028D9D029462046E4
:1025000002F004FC0028D3D0AB785BB145F65A53F7
:102510009C421CD00AD8B4F5B84F12D045F6DE4321
:102520009C4211D02846FFF734FFC2E745F65B53C3
:102530009C420FD045F65C539C42F3D104F0EEFB75
:10254000F0E7FFF79AFFB3E704F06CFDB0E704F0A3
:10255000F1FBE7E704F0F1FBE4E70000F8B5174B07
:1025600017491F5C174BC20800F007008D5C164925
:102570009B5C8E5C0341054113F0010446FA00F0B8
:1025800005F0010500F0010602D0E12003F06EFC29
:1025900015B1E62003F06AFC384603F055FD15B18D
:1025A000E62003F0E3FC14B1E12003F0DFFC26B1E8
:1025B000BDE8F8402C2003F047BDF8BD14A6000884
:1025C000F4A5000894A6000804A600082DE9F0412F
:1025D000234F04460E464FF00A08207800283DD0CD
:1025E000012838D16378012B0ED1A078A51C03F007
:1025F0002BFD2C4601343546002DEED06420013DE4
:1026000005F025FEEDB2F7E7022B04D1A078A51C5A
:1026100003F02CFCEDE7032B04D1A078A51C03F0FC
:10262000A5FCE6E7042B01D00134E3E722460025B0
:1026300012F8023FD95D4907144606D4002DD9D0BF
:10264000642005F004FE013DF8E7303B08FB05354A
:1026500012F8013FEEE7FFF781FFCBE7BDE8F0811D
:1026600019A000080021FFF7B1BF00002DE9F041DB
:10267000234F04460E464FF00A08207800283DD02C
:10268000012838D16378012B0ED1A078A51C03F066
:10269000DBFC2C4601343546002DEED06420013D94
:1026A00005F0D5FDEDB2F7E7022B04D1A078A51C0B
:1026B00003F0DCFBEDE7032B04D1A078A51C03F0AD
:1026C00055FCE6E7042B01D00134E3E7A3780025AD
:1026D0000234DA5D520704F1010106D4002DD9D08D
:1026E000642005F0B4FD013DF8E7303B08FB0535FB
:1026F00063780C46EDE7FFF731FFCBE7BDE8F081EB
:1027000019A000080021FFF7B1BF034600091CBF54
:10271000034604209A081EBF02301346C0B25B086D
:102720001CBF0130C0B27047704708B5FFF7FCFF0F
:1027300008BD0120704708B5FFF7FBFF08BD7047D3
:1027400010B50446FFF7F1FF2046FFF7F4FF10BD78
:102750000020704770470000014B33F810007047AD
:10276000D2A6000810B500F0D5F8B0F5A04F044689
:1027700030D2B0F5804F80F08980DF2812D8BF2892
:1027800078D8A7280AD8A42868D8012804D0031F1D
:102790009BB2A12B28BF0024204610BDBF2861D1C9
:1027A0000024F9E7B0F5005F0BD2FF28F4D8E72842
:1027B000F2D9A0F1F0039BB20F2BF1D840F4A04066
:1027C00027E0B0F5405F5BD30205C3B25BD443F4AE
:1027D0004044E1E7B0F5AA4F1DD2B0F5A84FC3B20F
:1027E00072D2B0F5A64F0AD2B0F5A44F63D2B0F5BD
:1027F000A24F50D34AF2F10040EA0324CCE79C08F0
:10280000012003F0030300FA03F343EA441040F409
:102810000A4084B2C0E7B0F5B44F0FD2B0F5B24F62
:102820005ED2B0F5AC4F52D3A0F5B0439BB2FF2BB4
:10283000B6D84AF2F00040EA0420EAE7A0F5C04327
:102840009BB2B3F5005FABD2C0F3042000F0E2F816
:10285000000200F4F850E4B220433EE0243840F493
:102860008040D6E75834E4B2234B33F8140040F4E8
:10287000884491E7C03880B2FFF76EFF04468BE7CB
:10288000C0F30B00F8E743F4484485E7C0F30B00BE
:1028900040F4204480E7C0F30114C3F381004001F9
:1028A00040EA042003F00303012404FA03F318436D
:1028B00040F40C40ADE79C08012003F0030300FA4C
:1028C00003F343EA4410F3E74AF2F40094E7C0B29A
:1028D00000F0A0F8000200F4F85040F400545BE768
:1028E00000F00F0000F096F8C4F3031440EA04204F
:1028F00040F410408DE700BFA4A6000807B5ADF86E
:102900000410019902F073FC03B05DF804EBFFF7CB
:1029100029BF0000E7284DD8DF2807D8312861D02B
:102920000ED8292857D02A2863D07047A0F1E00399
:10293000072B3FD8DFE803F0123E2126303E3A3F16
:10294000392804D0822802D035283DD07047304B3A
:102950001B7813F0030F18BFE02070472C4A137840
:10296000D9074DD4527812F0010F23D013F0100F75
:1029700008BFE32018BF00207047254B1B7813F0D9
:10298000040FF2E7224A137859073BD45278D20752
:102990003AD413F0100FEDE71D4B5A78910709D583
:1029A0001B7813F0100F08BFE720E3E7184B1B78E4
:1029B0001A07F6D47047164A1378190726D45278A6
:1029C0009207E6D5E420F5E7114B1B7813F0200FB2
:1029D00018BF292070470E4B1B7813F0200F18BF2B
:1029E000352070470A4B1B7813F0400F18BF2A2080
:1029F0007047074B1B7813F0400F18BF312070470A
:102A000039207047E2207047E0207047E620704789
:102A100014170020294A1378590707D500F0180128
:102A2000082927D100F0F70040F00400190707D566
:102A300000F01801182926D100F0E70040F014003A
:102A40005278D10707D500F01801082924D100F0E9
:102A5000F70040F00100920707D500F01802182A8D
:102A600023D100F0E70040F01100DB0648BF00F082
:102A7000E700704700F01401042904BF00F0FB00D8
:102A800040F00800D2E700F01401142904BF00F060
:102A9000EB0040F01800D3E700F01101012904BF5A
:102AA00000F0FE0040F00800D5E700F01102112A06
:102AB00004BF00F0EE0040F01800D6E71417002025
:102AC0000020704700207047014B1860704700BF1E
:102AD000300E002002F020BA08B500F0FDF84FF4E7
:102AE0007A7005F0B4FB00F0F7F8012000F038F838
:102AF000030705D5FFF7EEFFBDE8084004F0F2BB81
:102B000008BD08B5FFF7E8FF08BD000008B504F0F0
:102B100007FA08B904F086FA04F00CFA084B1870AA
:102B200004F00EFA074B1880FFF7EBFF04F005FAEC
:102B300003F0AFFF044B1878BDE8084003F0C5BFB1
:102B4000F80F002014170020AD140020704708B5BE
:102B5000FFF7FCFF08BD08B5FFF792FA08BD0000BB
:102B6000014B185C704700BF2117002070470320FD
:102B700005F06DBB00BF00BF00BF00BF00BF00BFBE
:102B800000BF00BF00BF00BF00BF00BF00BF00BF4D
:102B900000BF00BF00BF00BF704708B5FFF7E7FFE9
:102BA00008BD08B5202282F31188012100F00F032F
:102BB000994020F00F0006F0A0FB002383F311885A
:102BC00008BD000038B50C4D0B2455F8040B421C11
:102BD00001D0FFF7E6FF013C14F0FF04F5D1074DEB
:102BE000082455F8040B431C01D0FFF7DAFF013C21
:102BF00014F0FF04F5D138BDF4A60008D4A60008EF
:102C00002DE9F843254F57F821300646581C0D464C
:102C100040D0202282F311884FF0010823F00F09E1
:102C200003F00F0308FA03F4214642464846A4B2D3
:102C300006F063FBA9F81A40002484F31188FFF71B
:102C400099FF17482346A14650F8042B511C23D066
:102C500022F00F0102F00F02096921FA02F2D207F5
:102C60001AD408FA03F254B2013344EA0904082BD7
:102C70005FFA84F9E8D157F82500431C01D0FFF72B
:102C800090FFB9F1000118BF01212846FFF785FF29
:102C900006F80590BDE8F8830024E5E7F4A60008EF
:102CA000D4A6000808B5FFF78DFF094A002353603A
:102CB0001360C2F80730074A0B2053601360C2F854
:102CC000073000F039F8BDE80840FFF7C3BB00BF8C
:102CD000161700202117002030B585B00024CDE95B
:102CE0000144CDF80B40E1B201A80134FFF788FFA1
:102CF0000B2CF8D10E4D224601A92846FDF726FBE4
:102D0000002814BF0124002407D001AA03CA937825
:102D10006960118828602981AB72064904482346FE
:102D20000B2200F00BF8FFF7A0FB204605B030BDEA
:102D3000161700202117002070470000F8B50F4C2F
:102D400006460F4615462BB10123237004F09CFA6A
:102D50000B4B186023782BB1094B186804F0BCFAB0
:102D6000042808D8F8BDF25CFA5401339D42FADC1D
:102D700000232370F6E70023F8E700BFF90F0020D7
:102D8000FC0F0020194B1B78D90709D5184B187870
:102D900000EB800080087F2824D828B3C0B2704799
:102DA0009A0705D5124B187800EB80004008F2E72F
:102DB0005B0704D50E4B187800EB8000EBE70D4B5A
:102DC0001B786BB10C4A0A49127808789342F3D207
:102DD00010FB03F000EB8000B0FBF2F080B2DAE70A
:102DE0000520DBE77F207047012070470A10002094
:102DF000360E00200B100020370E0020154B1B78DC
:102E0000D90705D5144B1878800800B3C0B27047B5
:102E10009A0703D5104B18784008F6E75B0705D5ED
:102E20000D4B18787F28F0D97F2070470B4B1B780B
:102E30005BB10B4A084912780878934236BF10FB01
:102E400003F080B2B0FBF2F0ECE70120DEE70120F6
:102E5000704700BF0A1000203A0E00200C1000201E
:102E60003B0E0020F02808B505D1FFF78BFF40424C
:102E7000294BD87008BDF12802D1FFF783FFF7E78F
:102E8000F22805D1FFF77EFF4042234B9870F1E70F
:102E9000F32802D1FFF776FFF7E7F92804D1FFF70F
:102EA000ADFF1D4B1871E5E7FA2803D1FFF7A6FF28
:102EB0004042F6E7FB2805D1FFF7A0FF4042164B42
:102EC0005871D7E7FC2802D1FFF798FFF7E700F128
:102ED0000C03DBB2042B08D80F4A0123F43803FAA1
:102EE00000F0537818435070C4E7FD2805D10B4A11
:102EF000137843F001031370BCE7FE2804D1074A9E
:102F0000137843F00203F6E7FF28B3D1034A13789E
:102F100043F00403EFE700BF041000200A10002074
:102F2000364BF02893F902200AD193F903100029B7
:102F30000CDA0021D97052B9314A0021117006E033
:102F4000F1280DD193F903100029F2DC72B11A793E
:102F50005B7913435AB2002B4FD12A4B1A7070473A
:102F6000F22806D1002AF1DA00229A7093F90320A0
:102F7000E1E7F32802D1002AF6DCE7E7F92893F924
:102F8000041004D10029E1DD00211971DEE7FA28DF
:102F900002D10029DADAF7E7FB2893F9051004D10A
:102FA0000029D3DA00215971D0E7FC2802D1002989
:102FB000F8DCCBE700F10C01C9B2042907D8F438DA
:102FC00001218140587820EA01005870BEE7FD28B1
:102FD00005D10D48017821F001010170B6E7FE2806
:102FE00004D10948017821F00201F6E7FF28ADD1AC
:102FF0000548017821F00401EFE770470410002034
:103000000B1000200C1000200A10002008B504F05E
:1030100057F9094BDA7899780A431CBF074A1080A0
:103020001A795B7913431CBF054B1880BDE8084033
:10303000014802F0EFBD00BF041000200010002086
:10304000021000202DE9F047564C94F9028094F9C3
:10305000037094F9046094F9055094F800A094F872
:1030600001900023A370E3702371637158EA070392
:103070000AD04D4B188804F028F94C490B783BB323
:103080004B4A127890422DDC56EA05030BD0494B8F
:10309000188804F01AF948490B78002B4ED0474A9B
:1030A0001278904254DCE278A378134322791343D8
:1030B0006279134301D0FFF7A9FF84F800A084F8D8
:1030C000019084F80280E77026716571BDE8F08791
:1030D0003B4A127802EB8202B0EB420FD4DD01339F
:1030E0000B7001E0FF2BFAD1B8F1000F08D0FFF709
:1030F00049FEB8F1000FCCBF0123FF235843A07055
:103100003FB1FFF73FFE002FCCBF0123FF23584301
:10311000E07094F90220002AB6D094F90330002B15
:10312000B2D0B5214A43121201FB03F308BF0122BA
:103130001B1208BF0123A270E370A5E7214A127891
:1031400002EB8202B0EB420FADDD01330B7001E008
:10315000FF2BFAD13EB1FFF751FE002ECCBF012369
:10316000FF23584320713DB1FFF748FE002DCCBF2F
:103170000123FF235843607194F90420002A92D060
:1031800094F90530002B8ED0B5214A43121201FB71
:1031900003F308BF01221B1208BF012322716371D0
:1031A00081E700BF04100020001000200B10002059
:1031B000350E0020021000200C100020390E0020D7
:1031C000340E0020380E0020054A0023136093803F
:1031D000044A1370044A1370044A1370704700BF06
:1031E000041000200B1000200C1000200A100020FA
:1031F00008B500F069F940F6FF7008BD08B507484A
:1032000000F01AF9064800F017F9064800F014F922
:10321000BDE80840044800F00FB900BF00E0030813
:1032200000E8030800F0030800F80308B0F5805F29
:103230002DE9F041884602D30020BDE8F081470027
:1032400007F1006606F578364FF6FF7233889BB2B9
:1032500093424FEAA02404D1304600F00FF980B227
:10326000EBE7E402134D04F1006404F578344FF405
:10327000006221462846FDF799F833789845DBD05F
:1032800040F2FE70384005F5006605F800802046E3
:1032900000F0D2F8297861F0FF014B1C03D089B20D
:1032A000204600F0EBF80235B54204F10204F1D1FA
:1032B000D5E700BF2C17002080B2400000F100606D
:1032C00000F578300078704780B2FFF7AFBF83B267
:1032D0005B0003F1006303F578331A78431C9BB25B
:1032E0005B0003F1006303F57833187842EA0020AD
:1032F000704738B584B20D462046C9B2FFF796FF35
:10330000601C290A80B2BDE83840FFF78FBFFFF785
:10331000F0BF82B2F8B5571CBFB20C46530079001B
:1033200003F1006301F1006103F5783301F57831B1
:10333000961CB6B2187891F800C0710001F10061D6
:1033400001F57831D51CADB20B78690001F100614F
:1033500001F578311B04097843EA0C23034343EA5F
:103360000163A34213D0E1B21046FFF75FFFC4F33D
:1033700007213846FFF75AFFC4F307413046FFF7ED
:1033800055FF210E2846BDE8F840FFF74FBFF8BDB6
:1033900010B503460A440846904200D110BD441CB3
:1033A000FFF78AFF03F8010B2046F5E770B50446E6
:1033B0000D468618B44200D170BDA8B214F8011BA6
:1033C000FFF734FF0135F5E7FFF7F0BF0B4BDA6885
:1033D000D0070CD4DA6851070BD4DA68D2060AD4C5
:1033E000D86800F00100C0F10500C0B270470120AC
:1033F0007047022070470320704700BF0020024042
:1034000073B50446FFF7E2FF0025FF2601280FD120
:1034100014B9062002B070BD01950196019B1BB93D
:10342000FFF7D4FF013CF1E7019B013B0193F5E776
:10343000002C08BF0620EDE738B5054640F6FF70C2
:10344000FFF7DEFF052815D10B4C236943F002037B
:1034500023616561236943F04003236140F6FF70F7
:10346000FFF7CEFF06281EBF236923F00203236166
:103470003423E36038BD00BF00200240104B00F150
:1034800078429A4270B505460E4616D81F20FFF7BF
:10349000B7FF052810D10B4C236943F001032361CA
:1034A0001F202E80FFF7ACFF06281EBF236923F0E4
:1034B000010323613423E36070BD0720FCE700BFF4
:1034C000FEFF070000200240044B1A69120641BFAC
:1034D000034A5A6002F188325A6070470020024065
:1034E0002301674530B585B010F47F4F0190C0F3DC
:1034F0000725C0F3074217D109B1314B9A5C8DF80B
:103500000C208DF80D208DF80E209DF80C30002039
:1035100063F307009DF80D3063F30F209DF80E3024
:1035200063F3174005B030BD9DF8044071B3244BE0
:10353000995C04EB4400FF234000B0FBF3F06FF014
:103540005403434303EB440303EB4303DBB215FB98
:1035500003F2C3F1FF036B4312121B12C5F1FF0408
:10356000C2F1FF02C3F1FF034C434A434B43C4F390
:103570000724C2F30722C3F30723C9B2062819D8C8
:10358000DFE800F00608110F1418060091B2D0E72A
:103590000A4619468DF80C108DF80D208DF80E4056
:1035A000B3E70B46114622461C46F3E71A460B4684
:1035B0002146F9E70B46214614461A46EAE700BFC2
:1035C00038A7000884B0012104B0FFF78BBF0128A1
:1035D00030B501D8C0B230BDB0F5F75F9DBF42092C
:1035E0000832D2B2FF220124A3185910C3F34705B1
:1035F000C3F34F0313FB03F39BB2834205D96A1E47
:10360000D2B29442F0D9601EE4E7FF2902D06C1CCC
:10361000E4B2F6E70846DEE710F040031ABFC24303
:10362000D2B2024610B502F00F0103B101310A4CCB
:10363000C2F3011204EB42035B7813FB01F114F8AF
:10364000123003EB2113DBB2020644BF5B42DBB254
:1036500083F0800010BD00BF20A7000884B0C0F335
:10366000072301902C31124810F81100E42110FBBF
:1036700001F0C2EB10201C300028B8BF4042A3EB81
:10368000C00000B220EAE07010FB03F000128DF8D9
:103690000500019B0020DAB262F30700C3F30722A2
:1036A00062F30F20C3F3074363F3174004B070477E
:1036B000640C002084B0C0F3074301902C31124801
:1036C00010F81100E42110FB01F0C2EB10201C30B7
:1036D0000028B8BF4042A3EBC00000B220EAE0706F
:1036E00010FB03F000128DF80600019B0020DAB2F7
:1036F00062F30700C3F3072262F30F20C3F307430B
:1037000063F3174004B07047640C002084B001904C
:103710008DF80420019B0020DAB262F30700C3F3A6
:10372000072262F30F20C3F3074363F3174004B08B
:103730007047000084B02C310A4B019013F811300F
:103740009A1A8DF80420019B0020DAB262F3070078
:10375000C3F3072262F30F20C3F3074363F3174059
:1037600004B07047640C002084B001900B4800EB5B
:103770004101002091F859309A1A8DF80420019BDC
:10378000DAB262F30700C3F3072262F30F20C3F338
:10379000074363F3174004B0704700BF640C002078
:1037A00030B5134D85B02C3105EB410301905B78AA
:1037B000A3F1200464B2002CBCBFC3F120035CB2AF
:1037C00015F811309A1A2244C0B210448DF8040042
:1037D000019B0020DAB262F30700C3F3072262F311
:1037E0000F20C3F3074363F3174005B030BD00BF9C
:1037F000640C002084B003EB43039DF8102001907B
:1038000002EB53038DF80430019B0020DAB262F31F
:103810000700C3F3072262F30F20C3F3074363F3E8
:10382000174004B070471FB5019048B20028BCBFD4
:10383000494248B25243C0F1380010FB002080B228
:103840001C46FFF7C4FE00EB400004448DF8044022
:10385000019B0020DAB262F30700C3F3072262F390
:103860000F20C3F3074363F3174004B010BD0000FB
:103870001FB5124C01902C3304EB430014F81330A5
:103880004078703B5943203802FB0012002A9DF813
:103890000410B8BF7F3201EBE2128DF80420019BC7
:1038A0000020DAB262F30700C3F3072262F30F20AD
:1038B000C3F3074363F3174004B010BD640C00204A
:1038C0001FB5124C01902C3304EB430014F8133055
:1038D0004078703B5943203802FB0012002A9DF8C3
:1038E0000410B8BF3F3201EBA2128DF80420019BF7
:1038F0000020DAB262F30700C3F3072262F30F205D
:10390000C3F3074363F3174004B010BD640C0020F9
:1039100030B585B02C33164D019005EB430415F8F6
:1039200013506478A5F170035BB2002BBCBFC5F1E6
:1039300070035BB2203C5443C3F1380301FB0342E4
:1039400012EB4202C0B248BF7F3200EBE2128DF8A8
:103950000420019B0020DAB262F30700C3F30722C0
:1039600062F30F20C3F3074363F3174005B030BD84
:10397000640C002030B585B00D460190C4B21046ED
:10398000FFF74AFE2C35124B13F815201044C2B233
:10399000A2F180035BB2002BBCBFC2F1800253B224
:1039A0005B0003F0FE0303EB430304EB93138DF87A
:1039B0000430019B0020DAB262F30700C3F3072250
:1039C00062F30F20C3F3074363F3174005B030BD24
:1039D000640C002084B0114B01902C31C0B213F85C
:1039E00011108B1A5BB2002BBCBF521A53B2DBB260
:1039F00003EB430300EB53138DF80430019B0020CD
:103A0000DAB262F30700C3F3072262F30F20C3F3B5
:103A1000074363F3174004B0704700BF640C0020F5
:103A200010B5044620B90029ACBF0020802010BD8D
:103A300080EAE072A2EBE07213B20029A6BFCB1AB3
:103A40005B015B1A01FA82F2B5BF520193FBF2F3FC
:103A500092FBF3F3C3F12003B8BFC3F160035BB281
:103A6000D8B2002CBCBF4042C0B2E0E730B585B050
:103A7000C0F30725EB1A01901046DCB2FFF7D0FF28
:103A8000C0EB801300EB83002044C0B210FB05F0B4
:103A900000128DF80500019B0020DAB262F30700E6
:103AA000C3F3072262F30F20C3F3074363F3174006
:103AB00005B030BD30B585B0C0F30745EB1A0190B5
:103AC0001046DCB2FFF7ACFFC0EB801300EB8300C5
:103AD0002044C0B210FB05F000128DF80600019BD7
:103AE0000020DAB262F30700C3F3072262F30F206B
:103AF000C3F3074363F3174005B030BD30B585B05D
:103B0000C0F307259DF82040019010461C1BFFF7CD
:103B100087FF2C44E4B2201AC0B210FB05F000125B
:103B20008DF80500019B0020DAB262F30700C3F3B1
:103B3000072262F30F20C3F3074363F3174005B076
:103B400030BD30B585B0C0F307459DF820400190E9
:103B500010461C1BFFF764FF2C44E4B2201AC0B2CD
:103B600010FB05F000128DF80600019B0020DAB270
:103B700062F30700C3F3072262F30F20C3F3074386
:103B800063F3174005B030BD1FB5019010461C46C9
:103B9000FFF746FF20448DF80400019B0020DAB2B5
:103BA00062F30700C3F3072262F30F20C3F3074356
:103BB00063F3174004B010BD1FB59DF81840019085
:103BC0001B1B1046DCB2FFF72BFF201A8DF80400F8
:103BD000019B0020DAB262F30700C3F3072262F30D
:103BE0000F20C3F3074363F3174004B010BD84B044
:103BF00004B0FFF7E7BC0000024808221C21FFF7D1
:103C0000C7BB00BF2C1F0020024808221C21FFF761
:103C1000DBBB00BF2C1F0020074B1A46052102F812
:103C2000011B06490888897891704FF67F729A8047
:103C3000A3F80100FFF7E8BF2C1F002014A0000824
:103C4000014BDB68184700BF28A7000810B4034CDD
:103C50006468A4465DF8044B604700BF28A70008CD
:103C60002DE9F04FDFF8DC900478344B99F80450DC
:103C70001B8804EB8404A4006D0889B0E4B25D43A2
:103C8000C5F3072304F11406F6B202932C4B0391FB
:103C9000622EB346804628BF4FF0620B03EB440709
:103CA00003F58E7AE3B29B4506D8612E8CBF0020C7
:103CB000012009B0BDE8F08F14F80A2098F801300F
:103CC0001A4238D097F8593097F85800203B9AB2EA
:103CD000703813FB03F381B200FB003080B2059112
:103CE0000492FFF774FC029A99F801C099F803E076
:103CF00005990092034699F80200049A039D4CEA44
:103D0000002012B209B240EA0E40A847C0F30723D0
:103D10008DF81C00C0F307408DF81D308DF81E0093
:103D20000798FFF764FFC0F30743C2B2C0F307214F
:103D30002046FFF78BFF02370134B3E7341F002022
:103D4000640C00202C1F00200149FFF789BF00BF31
:103D5000FD3A00080149FFF783BF00BF433B00085D
:103D60000149FFF77DBF00BFF53700080149FFF7A4
:103D700077BF00BFB93B00082DE9F04F2DED028B56
:103D80002F4BDFF8C49004781D8899F8043004EBB9
:103D900084045B08A400E4B25D43C5F3072304F187
:103DA0001406F6B208EE103A85B0264B0191622E49
:103DB000B346804628BF4FF0620B03EB440703F580
:103DC0008E7AE3B29B4508D8612E8CBF002001207B
:103DD00005B0BDEC028BBDE8F08F14F80A2098F80E
:103DE00001301A4228D099F8023099F8010099F868
:103DF00003C097F8592097F85810019D40EA032016
:103E0000203A703918EE103A40EA0C40A847C0F347
:103E100007238DF80C00C0F307408DF80D308DF8A6
:103E20000E000398FFF7E3FEC0F30743C2B2C0F3EE
:103E300007212046FFF70AFF02370134C1E700BF20
:103E4000341F0020640C00202C1F00200149FFF7C4
:103E500093BF00BF6D3A00080149FFF78DBF00BF57
:103E6000B53A00080149FFF787BF00BF27380008AF
:103E70000149FFF781BF00BF893B00082DE9F74FDB
:103E80000478DFF8A490274A99F80450DFF89CB032
:103E900004EB8404A400E4B2AB0804F11408158810
:103EA0005FFA88F8B8F1620F03FB0555C246064673
:103EB0000F4628BF4FF0620AC5F30725E1B28A45D5
:103EC00007D8B8F1610F8CBF0020012003B0BDE816
:103ED000F08F14F80B2073781A4220D099F8020062
:103EE00099F8013043EA002399F803002A4643EA8F
:103EF0000040B847C0F307238DF80400C0F3074023
:103F00008DF805308DF806000198FFF770FEC0F3BC
:103F10000743C2B2C0F307212046FFF797FE0134E2
:103F2000CCE700BF341F00202C1F0020800D002094
:103F30000149FFF7A3BF00BF5D3600080149FFF745
:103F40009DBF00BFB53600080149FFF797BF00BF0E
:103F50000D3700080149FFF791BF00BF3537000852
:103F60000149FFF78BBF00BF693700080149FFF720
:103F700085BF00BFA13700080149FFF77FBF00BF21
:103F8000753900080149FFF779BF00BFD53900082E
:103F90002DE9F04F2DED028BDFF8CCA00478304BEB
:103FA0009AF804501B8804EB8404A400AD085D4318
:103FB000E4B2C5F3072504F1140887B05FFA88F866
:103FC000814605F14000B8F1620FC0B20391C346CB
:103FD00028BF4FF0620BFFF71FFB803843B2284623
:103FE00008EE103AFFF718FB803847B2E3B29B4562
:103FF00009D8B8F1610F8CBF0020012007B0BDECDB
:10400000028BBDE8F08F174AA15C99F8012011429C
:1040100024D09AF802209AF801009AF803C0039E6F
:10402000009540EA022018EE101A3A4640EA0C4089
:10403000B047C0F307238DF81400C0F307408DF894
:1040400015308DF816000598FFF7D1FDC0F3074332
:10405000C2B2C0F307212046FFF7F8FD0134C5E7DF
:10406000341F0020800D00202C1F00200149FFF785
:104070008FBF00BF713800080149FFF789BF00BF3B
:10408000C13800080149FFF783BF00BF113900089C
:104090002DE9F34104781E4ADFF87880537804EB69
:1040A00084040546A4009078E4B243EA002304F1B6
:1040B0001406D078F6B2622E43EA0040374628BF95
:1040C0006227FFF794FDC0F307238DF80530C0F396
:1040D00007438DF804008DF80630E3B29F4206D8FE
:1040E000612E8CBF0020012002B0BDE8F08114F8E1
:1040F00008206B781A4208D09DF806309DF80420FD
:104100009DF805102046FFF7A1FD0134E5E700BF4B
:104110002C1F0020800D00202DE9F0430478DFF8EB
:10412000B88004EB8404A40085B0E4B2B8F80120A0
:1041300098F80330ADF8042004F114058DF806302A
:10414000EDB2622D0646019898F801902F4628BFDF
:104150006227FFF74CFDC0F307238DF8093098F86C
:1041600004308DF808009944C0F307408DF804909E
:104170008DF80A000198DFF86480FFF738FDC0F37E
:1041800007238DF80D30C0F307438DF80C008DF830
:104190000E30E3B29F4206D8612D8CBF0020012073
:1041A00005B0BDE8F08314F808307278134211D0DE
:1041B000DB0743BF9DF80E309DF80C209DF80D10D5
:1041C0009DF80A305CBF9DF808209DF80910204634
:1041D000FFF73CFD0134DCE72C1F0020800D0020A0
:1041E0002DE9F74F0478204FDFF8809097F804808E
:1041F000B7F80120FB78ADF8002004EB8404A4009C
:10420000E4B204F11405EDB2622DAA46064628BFB9
:104210004FF0620A8DF802304FEA9808A9F1C30BFB
:10422000E3B29A4506D8612D8CBF0020012003B06F
:10423000BDE8F08F14F8092073781A4212D01BF8E9
:1042400014301A097B7802FB08338DF8003000988F
:10425000FFF7CDFCC0F30743C2B2C0F307212046ED
:10426000FFF7F4FC0134DBE72C1F0020800D002059
:104270002DE9F74F0478214FDFF8849097F80480F8
:10428000B7F80120FB78ADF8002004EB8404A4000B
:10429000E4B204F11405EDB2622DAA46064628BF29
:1042A0004FF0620A8DF802304FEA9808A9F1C40B6A
:1042B000E3B29A4506D8612D8CBF0020012003B0DF
:1042C000BDE8F08F14F8092073781A4213D01BF858
:1042D000143008FB03F27B7803EB52138DF80030A7
:1042E0000098FFF784FCC0F30743C2B2C0F3072174
:1042F0002046FFF7ABFC0134DAE700BF2C1F00209B
:10430000800D00202DE9F3412A4B0478B3F80120F9
:10431000ADF8002004EB8404274A93F803801B794E
:10432000A4000646E4B21088DB0804F114055843E3
:10433000EDB2622DC0F307202F4628BF6227FFF79A
:104340006BF9A0F180035BB2002BBCBFC0F1800011
:1043500043B25B00DBB213FB08F31B128DF8023093
:104360000098DFF85880FFF742FCC0F307238DF870
:104370000400C0F307408DF805308DF80600E3B265
:104380009F4206D8612D8CBF0020012002B0BDE8FD
:10439000F08114F8082073781A4208D09DF806308E
:1043A0009DF804209DF805102046FFF74FFC0134CE
:1043B000E5E700BF2C1F0020341F0020800D0020E7
:1043C00037B51A4B0344054693F81C3119422AD0DD
:1043D000174B5C789A788DF80120DA788DF80220F6
:1043E000FCF700F94FF4B47204F1B403B3FBF2F13B
:1043F00002FB11331B1B48BF033300F0030043F3E0
:104400008F0303FB00438DF800300098FFF7EFFBAC
:10441000C0F30743C2B2C0F30721284603B0BDE88A
:104420003040FFF713BC03B030BD00BF640C002068
:104430002C1F0020F8B586780546EEB91B4B1C4AA8
:104440001B7912881033FF2B28BFFF235343C3F37C
:104450000F230A22B3FBF2F102FB11339BB24BB9DB
:10446000FCF7C0F86223697890FBF3F202FB1300BB
:10447000FFF7A6FF3046F8BD047804EB8404A400DF
:10448000E4B204F11406F6B2622E374628BF622762
:10449000A74204DC612E8CBF00260126EAE72046F5
:1044A0006978FFF78DFF0134F2E700BF2C1F002071
:1044B000341F002013B5124B0344044693F81C31FB
:1044C00019421BD0FCF78EF88DF80000FCF78AF833
:1044D0000C4B60F07F00DB788DF802308DF8010026
:1044E0000098FFF784FBC0F30743C2B2C0F3072173
:1044F000204602B0BDE81040FFF7A8BB02B010BDD7
:10450000640C00202C1F0020F8B586780546F6B90B
:104510001B4B1C4A1B7912881033FF2B28BFFF232B
:104520005343C3F30F230522B3FBF2F202EB8202E3
:104530009B1A9BB24BB9FCF755F86223697890FB44
:10454000F3F202FB1300FFF7B5FF3046F8BD047825
:1045500004EB8404A400E4B204F11406F6B2622E63
:10456000374628BF6227A74204DC612E8CBF002695
:104570000126EAE720466978FFF79CFF0134F2E75D
:104580002C1F0020341F00202DE9F3412C4B047810
:10459000DA788DF8022004EB84042A4AB3F801107B
:1045A00093F801801B79ADF80010A4000646E4B230
:1045B0001088DB0804F114055843EDB2622DC0F3F6
:1045C00007202F4628BF6227FFF726F8A0F18003B7
:1045D0005BB2002BBCBFC0F1800043B25B0003F0B4
:1045E000FE0303EB430308EB93138DF800300098B0
:1045F000DFF85480FEF7E6FFC0F307238DF80400D0
:10460000C0F307408DF805308DF80600E3B29F42F5
:1046100006D8612D8CBF0020012002B0BDE8F081DA
:1046200014F8082073781A4208D09DF806309DF8D7
:1046300004209DF805102046FFF708FB0134E5E74C
:104640002C1F0020341F0020800D0020014B9B6890
:10465000184700BF28A7000801F036BB7047704715
:1046600008B5FFF7FBFFFFF7FAFF08BD704707B576
:10467000017801EB81018900C9B26229A1F114001E
:10468000C0B228BF6221CDE90001FFF7EFFFDDE9ED
:104690000001FDF723FD03B05DF804FB70B502F0E7
:1046A000F3FD794B1860794B1B787BB9784B1B78FD
:1046B00013F0030400D09C08764E3378032B0ED8F9
:1046C000DFE813F006000E00C600D2000024F3E776
:1046D000714B00221A70714B18600123337070BD4A
:1046E0006F4B6B4A1B78A34225D16E49137809782A
:1046F00003F003035B1A18BF0123674DAB705379B6
:104700006A789A4205D00022114610466B70FFF776
:104710009DFF1B2C18D8DFE804F010192F33373B0E
:104720003F43474B4F53575B5F63676B6F73777BB9
:104730007F83878B8F930123DFE7A87848B100221E
:1047400011461046FFF782FF002002E05248FFF7B3
:104750009FFC2B7801332B70002875D10223337016
:10476000AB78002B70D1002C7CD0FFF779FFBDE82F
:1047700070404948FFF77BBF4748FFF7CDFCE8E7AB
:104780004548FFF72DFDE4E74348FFF771FDE0E7FB
:104790004148FFF7B7FDDCE73F48FFF7C9FBD8E723
:1047A0003D48FFF7CBFBD4E73B48FFF74FFBD0E793
:1047B0003948FFF751FBCCE73748FFF7C5FAC8E7A0
:1047C0003548FFF7C7FAC4E73348FFF7BDFBC0E73A
:1047D0003148FFF7BFFBBCE72F48FFF7C1FBB8E745
:1047E0002D48FFF7C3FBB4E72B48FFF7B9FAB0E752
:1047F0002948FFF737FBACE72748FFF739FBA8E765
:104800002548FFF7B3FAA4E72348FFF72FFCA0E7FA
:104810002148FFF731FC9CE71F48FFF733FC98E77E
:104820001D48FFF707FE94E71B48FFF76DFE90E772
:104830001948FFF7A9FE8CE71748FFF79DFB88E7AB
:104840001548FFF79FFB84E7002C3FF448AF8CE747
:10485000134B144A1C700E4B1B78C3F301031370E7
:10486000FFF7EEF9032339E70F4D2B780BB1FFF774
:10487000CBF90A4B002418682C7002F02DFD0F288C
:1048800088BF34702BE700BF1010002015100020E7
:104890002C1F0020410E00203C0E0020341F002061
:1048A0003F0E0020400E00201410002008B50B4BD6
:1048B0001B68984702F034FB18B902F0B3FBFFF70E
:1048C000ABF9FFF799F9064B1B7813F0FC0F03D1F6
:1048D000BDE80840FFF7A0B908BD00BF28A7000841
:1048E0002C1F002010B5044620B1002211461046AE
:1048F000FFF7ACFE014B1C7010BD00BF151000206F
:10490000064A137883F001031370054B00221A70D6
:10491000044B1A7810431870704700BF2C1F0020FA
:10492000410E0020141000200120FFF7E9BF000015
:10493000064A137813F0030304BF05490B7013787C
:10494000012161F301031370704700BF2C1F002089
:10495000410E002008B5FFF7EBFF024B01221A7051
:1049600008BD00BF14100020054B1A7892071EBF27
:10497000044A002111701A786FF301021A7070470F
:104980002C1F0020410E00200A4A137813F0030F59
:104990000BD058B9012060F387031370064B002237
:1049A0001A70064B1A781143197070471B2888BF7C
:1049B0001B20F0E72C1F0020410E002014100020C7
:1049C0000121FFF7E1BF0000054B1B789B08013375
:1049D0001C2B014634BF18460120FFF7D5BF00BF8E
:1049E0002C1F00200120FFF7EFBF0000064B1B78B3
:1049F000C3F38503013B13F0FF03014614BF1846C0
:104A00001B20FFF7C1BF00BF2C1F00200120FFF7B4
:104A1000EDBF000030B5064C2578AD0706D0E2703A
:104A2000044AA170117860700B43137030BD00BF51
:104A30002C1F002014100020034903464878CA7830
:104A400089780830FFF7E6BF2C1F00200120FFF710
:104A5000F3BF0000054910B44C78CA788978083C47
:104A60000346A0B25DF8044BFFF7D4BF2C1F002013
:104A70000120FFF7EFBF000010B4074CA178E278E7
:104A80001031FF2928BFFF210346C9B260785DF8C5
:104A9000044BFFF7BFBF00BF2C1F00200120FFF712
:104AA000EBBF000010B4064CA178E278103921EA7F
:104AB000E1710346C9B260785DF8044BFFF7AABF05
:104AC0002C1F00200120FFF7EDBF000010B4074CA1
:104AD000E278A1781032FF2A28BFFF220346D2B223
:104AE00060785DF8044BFFF795BF00BF2C1F0020D6
:104AF0000120FFF7EBBF000010B4064CE278A1786C
:104B0000103A22EAE2720346D2B260785DF8044BB2
:104B1000FFF780BF2C1F00200120FFF7EDBF000032
:104B2000034B1871034B1A7811431970704700BF7B
:104B30002C1F002014100020044B1B791033FF2B76
:104B400028BFFF230146D8B2FFF7EABF2C1F002081
:104B50000120FFF7F1BF0000044B1B79103B23EA53
:104B6000E3730146D8B2FFF7DBBF00BF2C1F002064
:104B70000120FFF7F1BF000008B50548002100F053
:104B8000ABF8BDE808400348012100F0A5B800BF1C
:104B90000D0400480E04004808B500F049FF05491F
:104BA000054800F033F8BDE808400249034800F02A
:104BB0002DB800BF0D0800480D0400480E04004841
:104BC000F8B5174600220D461E461146042300F094
:104BD00069FF044620B900F0E3FF00242046F8BD39
:104BE000094865F05F0502210570477000F0CEFFAF
:104BF0000028F0D19DF81810304600F0C7FF0028BB
:104C0000E9D100F0CDFFE9E718100020F0B521F060
:104C10000F07012501F00F0185B005FA01F42146C7
:104C200006462A463846A4B204F067FB3C830DF1E1
:104C30000F03962700952A46002130468DF80F7005
:104C4000FFF7BEFF0024E2B200950DF10F0304212F
:104C5000304601348DF80F70FFF7B2FFD82CF2D137
:104C60000022B1238DF80F3000950DF10F0311468E
:104C70003046FFF7A5FF05B0F0BD0000F0B50B4CC6
:104C800004EB800514F820400948AF78EE786D7881
:104C900004F003044FF0D80C0CFB04004155C2553E
:104CA0008355044B01221A55F0BD00BF80A10008B6
:104CB000381F002016100020F8B505460E4617468E
:104CC000002420463B46324629460134FFF7D6FFF2
:104CD000622CF6D1F8BD000037B5084D6B5C0C4670
:104CE00043B1074AD823009301FB0323002202218A
:104CF000FFF766FF00232B5503B030BD16100020D0
:104D0000381F002000B110470847000038B58C78E4
:104D10000546002C51D002F013F845F6D5439D42CC
:104D200000F0220014D845F6C1439D4215D9A5F5DF
:104D3000B945433D122D12D8DFE805F0151A1D20A4
:104D40002326292C2F3235393B3D1313131313001F
:104D500045F65D539D4208BF0024204638BDFFF74D
:104D6000E3FD0024F9E7164A1649FFF7CBFFF8E701
:104D7000144A1349F9E7144A1449F6E7134A124949
:104D8000F3E7134A1349F0E7124A1149EDE7124AD3
:104D90001249EAE7114A1049E7E7114A1149E4E7E5
:104DA000104A0F49E1E70120FFF70AFED9E7052085
:104DB000FAE70D20F8E71220F6E70124CDE700BF5F
:104DC0000D4A0008E5490008714A00084D4A0008EC
:104DD000C54A00089D4A0008194B0008F14A00081E
:104DE000714B0008514B000808B5FDF74BF908BDA1
:104DF00010B50C4C20224FF40041204604F07DFAFF
:104E000020224FF48041204604F077FA226923697A
:104E10005B0BC2F3C03203F002031343024A137068
:104E200010BD00BF000800481B1000201E4B1A696F
:104E30001B6910B55B0BC2F3C03203F002031343CE
:104E40001A4A1B4C117843EA8103DBB21370194AEA
:104E500003F00F03D35C227813445BB2032B23705F
:104E600020DD154A13780021013308461370FFF73F
:104E7000BBFF012094F90030033308DA0E4A13789F
:104E80000121013B00201370FFF7AEFF012094F9D0
:104E900000305A4202F0030203F0030358BF5342AA
:104EA000237010BD0020E5E7000800481B1000201B
:104EB0001A10002038A800081C10002008B5232074
:104EC000FEF7FAF9212801D0002008BD2420FEF7C2
:104ED000F3F90828F8D12520FEF7EEF9A0F109032F
:104EE00058425841F1E710B5041E14BF2121FF219B
:104EF0002320FEF7E9F9002C14BF0821FF2124200C
:104F0000FEF7E2F9002C18BF0921BDE8104008BFE8
:104F1000FF212520FEF7D8B908B50020FFF7E3FFF1
:104F2000BDE8084001F0F2BF704708B52620FEF743
:104F3000C3F908BDC1B22620FEF7C6B908B5FFF710
:104F4000F3FFFFF7BBFF50B9FFF7F4FF00F0FCF8E9
:104F500000F090F9BDE808400120FFF7C4BF08BD8C
:104F600010B58C78FCB1A0F5BE43123B0F2B24D8B2
:104F70001238C0B200F08AF90024204610BD01208A
:104F800001F0BEFD032202210120FDF755FAF3E7EF
:104F9000012001F0C1FD032202210120FDF74CFA9E
:104FA000EBE70220F5E745F610739842F0D045F69E
:104FB00011739842F5D00124DFE745F6107398424B
:104FC000DDD045F611739842D7D10220D8E7FF23F0
:104FD00003707047F8B50378013B04460D46122B69
:104FE00054D8DFE803F00A14384147505353535361
:104FF00053565A6069727578810000234370092303
:10500000837029462046BDE8F84002F083BC43780F
:10501000022B0DD0032B0ED0012B17D102F034F947
:10502000030EA370030CE370030A23716071E8E7B9
:10503000FFF77BFFF4E7471C0026F0B2FDF790FD79
:1050400001360B2E07F8010FF7D1DAE72946204683
:10505000FFF7BDFFD5E74378022BF7D1D0F8020068
:1050600000BAFFF767FFCCE7C2788178407800F09C
:105070004EF8D9E78388C278817840785BBA9BB2D2
:1050800000F053F8BDE700F05FF8BAE7FF230370C4
:10509000B7E700F0BFF86070B3E700F0BDF8030AAF
:1050A0006370A070ADE7B0F80100E17840BA221D4E
:1050B00080B200F0B4F8A4E7B0F80100E17840BA9B
:1050C000221D80B200F0C2F89BE700F0D3F898E709
:1050D00000F013F8DFE7B0F80100E17840BA221DD4
:1050E00080B200F059F88CE7B0F80100E17840BADE
:1050F000221D80B200F067F883E704207047520059
:1051000002EB0111B02202FB00102730704738B5C6
:10511000FFF7F5FF0546FEF7CFF80402681CFEF71F
:10512000CBF8A4B2204380B238BD38B5FFF7E7FF13
:105130001C460546190AFEF7C7F8E1B2681CBDE82F
:105140003840FEF7C1B800002DE9F84FDFF8448081
:105150000024474600255FFA84FA0EE0F2B239F8DF
:10516000023B594650460136FFF7DFFF082EF5D1C6
:1051700001350B2D07F1100704D0B94600265FFA60
:1051800085FBEBE70134042C08F1B008E1D1BDE860
:10519000F88F00BF34A30008F8B5144600F12705C6
:1051A00056180027B44200D1F8BDA5F12703B3F586
:1051B000307F06DA2846FEF77FF82070013501348B
:1051C000F0E72770FAE770B5144600F12705561886
:1051D000B44200D170BDA5F12703B3F5307F03DAE7
:1051E00021782846FEF770F801340135F0E782B0E7
:1051F0000328ADF804100AD89DF805100A2906D82E
:105200009DF80420072A02D802B0FFF780BF0020D3
:1052100002B070471020704740F219107047F8B57F
:10522000144600F2E72556180027B44200D1F8BD15
:10523000A5F2E723B3F58C7F06DC2846FEF73CF8A1
:10524000207001350134F0E72770FAE770B5144695
:1052500000F2E7255618B44200D170BDA5F2E7234D
:10526000B3F58C7F03DC21782846FEF72DF8013456
:105270000135F0E710B540F2E72420460021013463
:10528000FEF722F8B4F5806FF7D110BD0F28F7B5FF
:10529000044620D840F2FF30FEF70EF8D8B940F2AD
:1052A000E725D4B9019401272846FEF705F86E1CBE
:1052B0008DF804008DF8054068B1431E022B17D805
:1052C0008DF8050030468DF80470FDF7F5FF0235C6
:1052D0008DF8060068B903B0F0BDB5F5806FFAD05F
:1052E0002846FDF7E9FF08B9013CE4B20135D8E7EB
:1052F000354601A8FDF7B6F9D6E70000F8B5144623
:1053000082789DF818701D46284B92B11C7001F0F0
:10531000D7FF274B188004F12003DBB2072B44D8BA
:1053200004F007040120A040C0B2BDE8F84000F03E
:1053300091BE1E78A6422ED11D4B188801F0C5FFE4
:10534000B32828D8AE4205F1200415D006F1200379
:10535000DBB2072B06D806F007060120B040C0B22A
:1053600000F081FEE3B2072B06D805F00703012009
:105370009840C0B200F06EFE3846E4B200F064FE21
:10538000072C12D805F007050120A840BDE8F84019
:10539000C0B200F068BE04F12003DBB2072B04D8D2
:1053A00004F007040120A040F0E7F8BD1D10002024
:1053B0001E10002013B545F6F64304469C420846ED
:1053C0000FD845F6F2439C4212D845F6D8439C428A
:1053D0001DD045F6D9439C423ED045F6D7439C426A
:1053E0000FD0807800283BD01E4B00221A701CE0A2
:1053F000A4F5B944743C022C0ED8DFE804F0181F61
:10540000260026230093E1231A4621460AE027239B
:105410000093E523E522F8E726230093E022E12329
:1054200045F6F341FFF76AFF002002B010BD2723C5
:105430000093E422E52345F6F441F3E726230093A5
:10544000E222E12345F6F541ECE727230093E6222B
:10545000E52345F6F641E5E7282300930123D9E744
:105460000120E2E71D10002038B5054688780028A5
:1054700000F0CF8045F615439D4216D845F601430E
:105480009D4217D901F05CFD634C45F615439D42E2
:10549000208021D845F601439D420CD8208801F098
:1054A0005BFD01F019F8002004E0A5F5B9437A3B53
:1054B000082BE7D938BDA5F5B845033D122D1AD8FC
:1054C000DFE805F01E222633373B3F455155595D35
:1054D000696D71757B978300A5F5B9457A3DABB2CF
:1054E000082BDBD8082DD9D8DFE805F0161B4D5165
:1054F000376B7A8D9100237843F001032370CDE759
:10550000237843F00203F9E7237843F00403F5E737
:10551000237843F00803F1E7637843F001036370F5
:10552000BCE7637843F00203F9E7237843F0100304
:10553000E4E7237843F02003E0E7237843F04003D7
:10554000DCE700F0C9FF237843F08003D6E7237837
:1055500023F00C0343F00C03D0E7637823F003033C
:1055600043F00303DBE723786FF30003C6E72378F8
:105570006FF34103C2E723786FF38203BEE723781A
:105580006FF3C303BAE763786FF30003C7E7637889
:105590006FF34103C3E723786FF30413AEE7237877
:1055A0006FF34513AAE723786FF38613A6E700F09D
:1055B00093FF23786FF3C713A0E7237823F00C033E
:1055C0009CE7637823F00303A9E72378C3F3800201
:1055D00082F00102D2B262F3820362F3C3038DE769
:1055E0006378DA4302F0010262F3000362F34103DD
:1055F00095E700F071FF2378C3F3C01282F0010237
:1056000062F3C7137AE7012001F00EFD46E70020A0
:10561000FAE701204EE700BF1417002045F61643B5
:10562000984210B50C4623D101F08AFBA178114AAB
:1056300010F0440F14BF002300F0AA0310F0110F64
:1056400018BF002361B1002B15BF012300233520B3
:105650002920137001F022FB01F0EAFB002010BDAD
:105660001378002B14BF3520292001F01FFBF3E72E
:105670000120F4E720100020704770477047704702
:1056800038B504460D46FFF7F7FF00F025FF01F09F
:105690002DFA256038BD00002DE9F8430D4F154661
:1056A00004460E4697F8008000F016FF01F01EFA3F
:1056B0004FEAC509B44208D100F00EFF284687F82A
:1056C0000080FFF7DAFFBDE8F883204600F0B5FE62
:1056D0004C44EFE7AD14002070B50D4604992C68DA
:1056E0008E780EB9A0420BD0A4EBC306B2424FEAAB
:1056F000C30006D00B6823604B68636004442C60D1
:1057000070BD1846FFF7BAFFFAE7F8B5074610462E
:1057100014460D461E46FFF7B2FFE4006442BD4248
:1057200002D02B199A780AB93560F8BD1D46F6E704
:1057300037B5344D2C783CBB8C787CB9A0F5BA4099
:105740000338042847D8DFE800F0030C461219009C
:105750002D492E48FFF794FF01232B70204603B0FC
:1057600030BD2B492948FFF78BFF0223F5E7294B72
:10577000254819680122FFF78FFFEFE7264B2448E1
:1057800019684FF0FF32F6E7A0F5BA43033B022B4E
:105790001DD845F60552801A8B7818BF0120834228
:1057A0002ED0012C04D0022C0AD000242C70D5E776
:1057B0001649184B096814482246FFF7A6FFF4E77C
:1057C0001249154B096812484FF0FF32F5E7012CDA
:1057D00003D0022C0AD00124C0E70F4A00911268BE
:1057E0000A4909482346FFF777FFB7E7094A0091BE
:1057F0001268064906484FF0FF33FFF76DFFEAE7EE
:105800000024ABE7221400202210002024140020E2
:105810001A140020440E0020480E002010B5012369
:1058200004460376407B01F091FAA07B01F0AAFACE
:1058300001F0FEFA63682BB1E16904F10C00BDE8E8
:105840001040184710BD10B50378022B044604D150
:105850004888FCF765FD0123237310BD0378012BF5
:1058600002D10888FCF75CBD022B01D14888F9E71A
:1058700070470378012B02D10888FCF767BD022B23
:1058800001D14888F9E77047C37A70B50446EBB98F
:1058900083880F4DA3F5AE435E0105EB43139A6871
:1058A00022B106F10C00D969284490473544687B41
:1058B00001F054FAA87B01F06DFA01F0B9FA054A3B
:1058C00000232370A3722373E380138070BD00BF95
:1058D000EC0D0020281400202DE9F8438B780546B4
:1058E00073B1154F97F90030013309D0134CDFF82D
:1058F000509000264FF0010897F90030B34201DACA
:10590000BDE8F883237BA3B1238AAB4203D1B9F866
:105910000030AB420DD0237E84F81680658213B927
:105920002046FFF77BFF04F10C00FFF7ADFF01F00D
:1059300039FA01362034DFE74C0E0020EC0D002050
:1059400028140020F8B5A0F5AE43FF2B064629D851
:105950001B4A1C4F92F900009CB21BB29842B8BF80
:10596000147065018A7807EB4414237BE275DAB181
:1059700001332373268201F0A3FCA08201F02EFAEA
:10598000607301F0DDF9A07301F0F6F9A37B034326
:10599000A3737B5923B105F10C00E16938449847A2
:1059A000094B1E800120F8BD002BFBD0237E002B6D
:1059B000F8D005F10C003844FFF766FFF2E700BFAE
:1059C0004C0E0020EC0D0020281400202DE9F84397
:1059D000DFF8548098F90030013320D1BDE8F88316
:1059E000670109EB4414658B237B002D08BFB425A8
:1059F00073B1A08A01F069FCA84209D9237E13B9CA
:105A00002046FFF70BFF07F10C004844FFF73CFF6F
:105A1000013698F90030F4B29C42E1DDDEE7DFF8B0
:105A20000C900026F5E700BF4C0E0020EC0D002086
:105A30001B4B07B51A787ABB012119704FF09040C3
:105A40002021019203F059FC019A40214FF090402F
:105A500003F053FC019A80214FF0904003F04DFC7D
:105A60004FF47A7002F0F3FB40F29A2220214FF0BB
:105A7000904003F042FC40F29A2240214FF09040C7
:105A800003F03BFC40F29A2280214FF0904003B09B
:105A90005DF804EB03F031BC03B05DF804FB00BF1C
:105AA0002A14002038B5364D2C68013465D1441CC9
:105AB00063D002249C422FD3A31EFE2B5DD8314B12
:105AC00069BB022A19822CD0032A2ED0012A03D1C5
:105AD0001A8A42F001021A82202C42D029D8082CBE
